:020000040800F2
:10000000B80C002065010008D7120008B5110008DF
:10001000D512000855040008D513000800000000A0
:10002000000000000000000000000000FB120008BB
:100030005704000800000000F9120008FD12000833
:100040007F0100087F0100087F0100087F01000890
:100050007F0100087F0100087F0100087F01000880
:100060007F0100087F0100087F0100087F01000870
:100070007F0100087F0100087F0100087F01000860
:100080007F0100087F0100087F0100087F01000850
:100090007F0100087F0100087F0100087F01000840
:1000A0007F0100087F0100087F0100087F01000830
:1000B0007F0100087F0100087F0100087F01000820
:1000C0007F0100087F0100087F0100087F01000810
:1000D0007F0100087F0100087F0100087F01000800
:1000E0007F0100087F0100087F0100080000000078
:1000F0000000000000000000000000000000000000
:1001000000000000000000007F0100087F010008DF
:100110007F0100087F0100087F0100087F010008BF
:100120007F0100087F0100087F0100087F010008AF
:100130007F0100087F0100087F0100087F0100089F
:100140007F0100087F0100087F0100087F0100088F
:10015000DFF80CD000F000F9004800470114000857
:10016000B80C00200648804706480047FEE7FEE737
:10017000FEE7FEE7FEE7FEE7FEE7FEE7FEE7FEE757
:1001800081130008510100082DE9F05F05460020A9
:1001900092469B4688460646814640241BE02846F8
:1001A00041464746224600F020F853465A46C01AB8
:1001B000914110D311461846224600F06AF82D1AD4
:1001C00067EB01084F4622460120002100F061F84C
:1001D00017EB00094E41201EA4F10104DFDC484664
:1001E00031462A464346BDE8F09F202A04DB203AE8
:1001F00021FA02F00021704721FA02F3D040C2F147
:1002000020029140084319467047421E12F8013FF0
:10021000002BFBD111F8013B02F8013B002BF9D177
:1002200070472DE9F04791460F4680460446002668
:1002300014F8015B2DB100F03BF80068405DC00789
:10024000F6D12B2D02D02D2D18D0641E4A463946EA
:10025000204600F031F827B13968A14201D1C7F832
:10026000008071054FF002040BD54042002803DDE9
:1002700001F0B2F80460A007BDE8F08746F480669C
:10028000E4E70028F8DA01F0A7F804606FF0004016
:10029000F2E7202A04DB203A00FA02F1002070473E
:1002A0009140C2F1200320FA03F3194390407047B4
:1002B00000487047D81500082DE9F05F82460078A5
:1002C000002715468B460AF10104B946302801D0B3
:1002D0009DB113E014F8010B0127782803D05828AA
:1002E00001D045B10AE00DB1102D07D1002710252E
:1002F00014F8010B02E0082500E00A250026B046AC
:100300000EE005FB080005FB06F1012701EB104696
:100310001FFA80F8B6F5803F00D3B94614F8010BF8
:10032000294600F02BF80028EBDABBF1000F05D0CE
:100330000FB1641E00E05446CBF80040B9F1000F45
:1003400006D001F049F802210160C81EBDE8F09F07
:1003500048EA0640FAE70000064C074D06E0E06870
:1003600040F0010394E8070098471034AC42F6D3FC
:10037000FFF7F2FEDC150008FC1500083A2800D251
:10038000303820F02002412A01D3A2F13700884200
:1003900001D34FF0FF30704770B5044600688168A4
:1003A000C943C9071CD1816821F00101816000F0B7
:1003B000E1FA05460FE000BF00F0DCFA401B02281E
:1003C00009D9A06A40F01000A062E06A40F0010084
:1003D000E062012070BD20688068C043C007EBD098
:1003E000002070BDF8B500260446009600688168BC
:1003F000C943C90728D0816841F0010181601348D1
:1004000013490068B0FBF1F000E0401E00900028A6
:10041000FBD100F0AFFA054611E000BF00F0AAFAE8
:10042000401B02280BD9A06A40F01000A062E06ACD
:1004300040F00100E06284F824600120F8BD2068EB
:100440008068C043C007E9D10020F8BD2C0000201F
:1004500040420F00FEE77047F8B50024009490F882
:1004600024202546012A12D0012280F824204A683F
:100470001F23072A0DD20668776B521E02EB8202F9
:1004800093409F430B6893401F43776319E002201A
:10049000F8BD06680D2A0AD2376BD21F02EB820222
:1004A00093409F430B6893401F43376309E0F76A0B
:1004B0000D3A02EB820293409F430B6893401F4327
:1004C000F7620A68072306680A2A0AD3F7680A3A15
:1004D00002EB420293409F438B6893401F43F760B7
:1004E00008E0376902EB420293409F438B689340D8
:1004F0001F4337610A68102A01D0112A20D1124BFC
:1005000002689A4217D193681B0219D4936843F486
:10051000000393600968102912D10C490C4A09683C
:10052000B1FBF2F101EB8101490000E0491E0091AD
:100530000029FBD104E0816A41F02001816201249D
:1005400080F824502046F8BD002401402C000020F3
:1005500040420F000068C06C704700002DE9F04178
:100560004FF0000704003D467ED0A06A002628B95F
:10057000E66284F82460204600F07EF82046FFF70B
:100580000BFFA16A01F01001014304D0A06A40F002
:100590001000A06268E0A16A21F4885141F00201D4
:1005A000A1626268E169E3680A4347EA43010A43DA
:1005B000A1684FF48077B94208D0012906D0002104
:1005C000D4F814C0BCF1010F02D00AE03946F7E7B5
:1005D000F3B1A36A43F02003A362E36A43F001038B
:1005E000E3622368D3F804C02CF4694C4CEA010C94
:1005F000C3F804C023689968DFF870C001EA0C01F1
:1006000011439960A168B9420BD0012909D00CE0CF
:10061000DFF85CC0A3690CEB43330B4343F4006188
:10062000DFE7218A0D05A5F580152168CB6A23F443
:1006300070032B43CB62216889680E4B19409142AD
:1006400008D1E662A16A21F0020141F00101A16234
:10065000BDE8F081A06A20F0020040F01000A06226
:10066000E06A40F00100E0620120F1E7FDF7E1FF00
:1006700000E0FFFFFE0E1FFF00B500680B4985B0CC
:10068000884210D10A48816941F400718161806912
:10069000694600F40070049010200090032001903F
:1006A000044800F07BF805B000BD000000240140C4
:1006B000001002400008014070B5044690F8240084
:1006C00001280DD0012084F824002046FFF78AFE7F
:1006D00002004FF0000005D084F82400104670BDE1
:1006E000022070BDA16A40F20123994341F4807158
:1006F000A1621F4D23681F49AB4218D10E6816F442
:10070000702F14D0A66A46F48016A6620E6876058D
:1007100005D5A66A26F4005646F48056A662A66A57
:10072000F6040AD5E66A26F00606E66206E0A66A40
:1007300026F48016A6625E68E9E7E06284F8240089
:100740006FF00200186020688368C3F34243072BF0
:1007500005D1A84208D1096811F4702F04D081682E
:1007600041F480118160B9E7816841F4A001F9E7A3
:10077000002801400424014070B5044600F0FAF856
:100780000546601C02D004480078044400F0F2F8EA
:10079000401BA042FAD370BD200000202DE9F84F85
:1007A000DFF890A100220AF1040B144601274FF054
:1007B0000F090BF1040E00BF0B6807FA04F52B407C
:1007C000AB4274D1DFF870C14E68A6EB0C086645E9
:1007D0002BD00DDC032E34D005DC36B3012E19D01E
:1007E000022E2FD11BE0112E16D0122E2AD119E085
:1007F000B8F5881F19D006DCB8F5803F15D0B8F5DC
:10080000801F1FD111E0B8F5001F0ED0B8F5041FEE
:1008100018D10AE0CA6815E0CA68121D12E0CA6859
:1008200008320FE0CA680C320CE08A682AB1012A4B
:100830004FF0080203D0456104E0042202E00561A4
:1008400000E00022FF2B01D8064601E000F104067B
:100850004FEA840501D9A5F12005D6F800C009FAB0
:1008600005F82CEA080C02FA05F54CEA050CC6F866
:1008700000C04D68ED0057D5304DAE6946F0010619
:10088000AE61AD6924F0030605F0010500952C4D1D
:1008900006EB050CDCF80850A6074FEA167809FAB3
:1008A00008F6B543274EB04202D1002610E03BE0E7
:1008B000254EB04201D101260AE0244EB04201D1BA
:1008C000022605E0224EB04201D1032600E00426B4
:1008D00006FA08F62E43CCF808604D68DAF8006096
:1008E000ED03554601D51E4300E09E432E604D6842
:1008F000DBF80060AD035D4601D51E4300E09E437A
:100900002E604D68DEF80060ED02754601D51E438D
:1009100000E09E432E604D68AD020E4D2E6801D55D
:100920001E4300E09E432E60641C102CFFF444AF75
:10093000BDE8F88F000401400000111000100240D3
:100940000000014000080140000C0140001001407F
:10095000001401400C0401408068084000D00120D0
:100960007047C2684A40C26070470AB1016170476F
:100970000904FBE701488068704700002000002060
:1009800070B5040011D021684CF6CC400860216895
:1009900045F255500860D4E9000141602168A06823
:1009A0008860FFF7E7FF054609E0012070BD00BF42
:1009B000FFF7E0FF401B302801D9032070BD2068FD
:1009C000C0680028F4D121684AF6AA2008600020F7
:1009D00070BD00684AF6AA2101600020704700003F
:1009E000024881680278114481607047200000202D
:1009F000074810B5016841F010010160032000F0C4
:100A000091F8002000F006F800F024F8002010BD56
:100A10000020024070B50D4D04464FF47A712878DD
:100A2000B1FBF0F00A490968B1FBF0F000F0AAFB55
:100A300048B9102C07D200222146501E00F052F86F
:100A400000206C6070BD012070BD000020000020FF
:100A50002C000020214808B5816941F00101816125
:100A6000816901F001010091C16941F08051C161CA
:100A7000C06900F080500090032000F053F800227D
:100A800011466FF00B0000F02DF8002211466FF0B8
:100A90000A0000F027F8002211466FF0090000F06C
:100AA00021F800221146501F00F01CF800221146C8
:100AB000101F00F017F800221146901E00F012F8E7
:100AC00000221146501E00F00DF80548416821F043
:100AD000E06141F00071416008BD0000001002407B
:100AE00000000140F0B40E4B1B680C46C3F3022318
:100AF000C3F10705042D00D90425191D072901D2CA
:100B0000002300E0DB1E012606FA05F1491E214004
:100B100099409E40761E16403143F0BC00F0DCBB8D
:100B20000CED00E0064900F0070208684FF6FF03ED
:100B3000184040EA0220034A104308607047000052
:100B40000CED00E00000FA052DE9F047DFF83C81EC
:100B500005460E46D8F8000000F00700B0420CD25F
:100B6000D8F8001021F007013143C8F80010D8F878
:100B7000000000F00700B04263D12878444C8007A1
:100B800005D56068A96820F0F00008436060287807
:100B9000C00745D06868012816D02168022816D001
:100BA000890700294DDA616821F003010143616082
:100BB000FFF7E0FE6968074641F2883001290FD04F
:100BC0000229814619D027E021688903E9E78901D4
:100BD000E7E700BFFFF7CEFEC11B494501D918E08A
:100BE00081466068C0F381000128F3D118E000BF9E
:100BF000FFF7C0FEC11B49450BD86068C0F38100F8
:100C00000228F5D10CE000BFFFF7B4FEC11B494537
:100C100002D90320BDE8F087606810F00C0FF3D113
:100C2000D8F80010404601F00701B1420BD9016825
:100C300021F0070131430160006800F00700B04275
:100C400001D00120E6E72878400705D56068E9680B
:100C500020F4E060084360602878000706D56068EB
:100C6000296920F4605040EAC100606000F01CF87F
:100C70006168084AC1F30311515CC8400649086025
:100C80000020FFF7C7FE0020C4E70000002002405C
:100C900000100240441500082C00002001480068A4
:100CA000704700002C000020F0B523A289B00FCAC5
:100CB00004AC84E80F0024A10FC98DE80F00264979
:100CC0004A68264802F00C03042B2FD0082B2DD1A4
:100CD00004A8C2F38343C45CD00329D5C86A00F0DA
:100CE0000F001DF80020C86AC00316D5C86AC96A7B
:100CF000C0F30310C1F30321401C891CA0FB022395
:100D0000A1FB0416154F0025A1FB070C06FB07C627
:100D100001FB0561FFF738FA03E010486043B0FBC0
:100D2000F2F09DF81D10A14200D1400809B0F0BDBD
:100D30000B486043FAE700000000040506070809B5
:100D400000000000000D0000010203040506070872
:100D5000090A0B0C0D0E0F100010024000127A0051
:100D600000093D002DE9F84F04460078EA4DC00720
:100D700048D06868C0F38100012807D06868C0F3D4
:100D80008100022809D16868C00306D5286880035D
:100D900038D5A06800286FD034E0A068B0F5803F57
:100DA0000BD010B1B0F5A02F11D0286820F48030FE
:100DB0002860286820F4802002E0286840F4803011
:100DC0002860A06888B1FFF7D5FD064609E02868CD
:100DD00040F480202860F0E7FFF7CCFD801B6428FA
:100DE00078D828688003F7D50CE0FFF7C3FD0646E6
:100DF00005E000BFFFF7BEFD801B6428F0D828681F
:100E00008003F7D42078C54E80074FF001094FF0DA
:100E100000073CD5686810F00C0F07D06868C0F375
:100E20008100022809D16868C00306D428688007B9
:100E300015D5606901281FD111E06069B8B1C6F805
:100E40000090FFF797FD804606E000BFFFF792FD98
:100E5000A0EB08000228C3D828688007F6D52868C8
:100E6000A16920F0F80040EAC10028600FE0376077
:100E7000FFF780FD804607E02DE100BFFFF77AFD18
:100E8000A0EB08000228ABD828688007F6D42078A9
:100E900000072ED5A248E169E9B1C0F80090FFF73C
:100EA00069FD804606E000BFFFF764FDA0EB080087
:100EB000022895D8686A8007F6D59A484FF4FA5107
:100EC0000068B0FBF1F0009000BF0098411E009157
:100ED000FAD20EE0B0E00760FFF74CFD804605E077
:100EE000FFF748FDA0EB0800022887D8686A800752
:100EF000F6D42078400763D5E8694FF00008C000B9
:100F000009D4E86940F08050E861E8694FF00108D1
:100F100000F08050009084480168C90512D401682F
:100F2000834641F480710160FFF724FD824605E0AD
:100F3000FFF720FDA0EB0A0064287DD8DBF8000055
:100F4000C005F5D5206901280AD008B1052813D0BD
:100F5000286A20F001002862286A20F0040002E0DC
:100F6000286A40F001002862206941F2883B98B16C
:100F7000FFF700FD82460BE0286A40F0040028627B
:100F8000EEE700BFFFF7F6FCA0EB0A01594553D886
:100F9000286A8007F6D50CE0FFF7ECFC824605E0F6
:100FA000FFF7E8FCA0EB0A01594545D8286A8007FD
:100FB000F6D4B8F1000F03D0E86920F08050E86162
:100FC000E06AD0B36968C90307D56968C1F38101D4
:100FD000022902D1E96AC9037DD4022808D0E86A4F
:100FE00020F48030E862B766FFF7C4FC80463BE03F
:100FF0002868C00005D5E86A616B00F0F0008842FF
:1010000069D1B766FFF7B6FC804605E0FFF7B2FC92
:10101000A0EB0800642874D828680001F6D4E86AB8
:10102000616B20F0F0000843E862E86A216B20F46D
:1010300070600843E86201E063E018E0C6F8689079
:10104000FFF798FC804605E0FFF794FCA0EB080052
:10105000642856D828680001F6D508E0FFF78AFC16
:10106000A0EB080064284CD828680001F6D4206A58
:1010700090B36968C1F3810102294AD0022837661A
:1010800003D0FFF777FC04463EE0FFF773FC07460A
:1010900005E000BFFFF76EFCC01B022831D82868AE
:1010A0008001F7D4606AB0F5803F09D1E86A6168D1
:1010B0000843E862E86AE16820F00F000843E8624C
:1010C000D4E909010843696821F474110843686090
:1010D000C6F8609001E01CE019E0FFF74BFC044605
:1010E00005E000BFFFF746FC001B022809D828686E
:1010F0008001F7D50BE000BFFFF73CFC001B022886
:1011000002D90320BDE8F88F28688001F4D40020BC
:10111000F8E70120F6E7000000100240000042421C
:10112000800442422C000020007000404FF0E0217B
:101130000428086903D020F004000861704740F0DB
:101140000400FAE70E4800210122C368C82B02D22E
:101150005B1CC36001E00270C1600369B3F5487FA6
:1011600002D25B1C036101E0427001614369022B02
:1011700002D25B1C4361704741618270704700007E
:101180000000002010B5401EB0F1807F01D3012087
:1011900010BD4FF0E02460610F21601700F09CF853
:1011A0000020A06107202061002010BD10B5FFF7CE
:1011B000C9FF10BDFEE700003EB510480E490124EE
:1011C000016000218160C16041614FF460220461CF
:1011D000C2614160FFF7C2F900B1FEE70420CDE92A
:1011E00000040320029069460448FFF735F90028FF
:1011F00000D0FEE73EBD0000002401403400002086
:101200002DE9F0412F4886B0816941F020018161CC
:10121000816901F020010491816941F0100181612F
:10122000816901F010010491816941F0040181613B
:10123000816901F004010491816941F00801816133
:101240008069214F00F008000490002240213846B8
:10125000FFF78BFBDFF87480002201214046FFF787
:1012600084FB4FF470700124002502268DE8710084
:1012700069463846FFF792FA0820CDE90004029447
:10128000694638460394FFF789FA01AA009482E878
:10129000700069464046FFF781FA4020CDE900051D
:1012A000CDE9024669464046FFF778FA4FF4A07050
:1012B0008DE8710069460648FFF770FA06B0BDE890
:1012C000F08100000010024000100140000C0140BD
:1012D00000080140FEE770470907090E002806DAFA
:1012E00000F00F0000F1E02080F8141D704700F1BD
:1012F000E02080F8001470477047704710B5FFF782
:101300006FFBBDE81040FFF751BF000070B594B00F
:10131000012500242804CDE902040226CDE9086055
:101320000095059501944FF4E010CDE90A04684654
:10133000FFF718FD00B1FEE70F20CDE90E064FF4D0
:101340008060CDE9104002210EA81294FFF7FCFB4B
:1013500000B1FEE7FFF7A2FC4FF47A71B0FBF1F0A9
:10136000FFF710FF0420FFF7E1FE044805670022A5
:101370001146501EFFF7B6FB14B070BD000042428C
:101380001048016841F00101016041680E4A1140B6
:10139000416001680D4A11400160016821F480211B
:1013A0000160416821F4FE014160016821F0A05113
:1013B00001604FF47F0181600021C1620449C003D4
:1013C00008607047001002400000FFF0FFFFF6FECB
:1013D00008ED00E0FEE70000004870473000002004
:1013E00002E008C8121F08C1002AFAD170477047EE
:1013F000002001E001C1121F002AFBD1704700004C
:1014000000264848374635460670FFF7F1FAFFF7E1
:101410007DFFFFF7F5FEFFF7CFFE4348FFF79EF88D
:101420004148FFF749F94148406A800002D54049E8
:10143000012008603C483F49303000F10C04016055
:101440000521416040F6AA218160E574211D00F666
:101450003E00FEF7DAFEE5710A223749201DFEF74D
:10146000E0FEDFF8D4800A22A8F11C08324988F88F
:101470000400E57204F10800FEF7D3FE88F80500C9
:10148000E5730A222C4904F10C00FEF7CAFE88F825
:101490000600E574A4F10C00FFF772FA00B1FEE754
:1014A0004446A07808B3A5701F48FFF753F81FFA09
:1014B00080F81D48FFF700F9642E03D2761C4744DC
:1014C000B6B20BE06420B7FBF0F00026642148437D
:1014D00040F2AD11B0FBF1F02081374640211748B2
:1014E000FFF73AFAE07080B1A561207840B1802121
:1014F0001348FFF736FA0C4825703030FFF769FAC9
:1015000060780028CDD06570CBE7A069B0F5FA6FA0
:1015100002D2401CA061E8E75FF06400FFF72CF9FD
:10152000C820FBE7700800203400002000100240B3
:10153000E0044242003000401C000020000C01404A
:101540000010014000000000000000000102030440
:1015500006070809004040404040404040404141AB
:101560004141414040404040404040404040404078
:101570004040404040050202020202020202020212
:10158000020202020220202020202020202020020F
:10159000020202020202909090909090101010109F
:1015A000101010101010101010101010101010103B
:1015B00002020202020288888888888808080808CF
:1015C000080808080808080808080808080808089B
:1015D000020202024000000055150008FC15000838
:1015E0000000002034000000E0130008301600085E
:1015F00034000020840C0000F013000800000000FC
:101600000A052800000000000000000000000000A3
:1016100000000000000000000000000001000000C9
:10162000100000000000000000A24A0400000000BA
:04000005080001519D
:00000001FF
