:020000040800F2
:10000000888C002065010008331B00087D1900085A
:10001000311B0008D1040008311C0008000000005A
:10002000000000000000000000000000571B000856
:10003000D304000800000000551B0008591B0008ED
:100040007F0100087F0100087F0100087F01000890
:100050007F0100087F0100087F0100087F01000880
:100060007F0100087F0100087F0100087F01000870
:100070007F0100087F0100087F0100087F01000860
:100080007F0100087F0100087F0100087F01000850
:100090007F0100087F0100087F0100087F01000840
:1000A0007F0100087F0100087F0100087F01000830
:1000B0007F0100087F0100087F0100087F01000820
:1000C0007F0100087F0100087F0100087F01000810
:1000D0007F0100087F0100087F0100087F01000800
:1000E0007F0100087F0100087F0100080000000078
:1000F0000000000000000000000000000000000000
:1001000000000000000000007F0100087F010008DF
:100110007F0100087F0100087F0100087F010008BF
:100120007F0100087F0100087F0100087F010008AF
:100130007F0100087F0100087F0100087F0100089F
:100140007F0100087F0100087F0100087F0100088F
:10015000DFF80CD000F03EF900480047D531000828
:10016000888C00200648804706480047FEE7FEE7E7
:10017000FEE7FEE7FEE7FEE7FEE7FEE7FEE7FEE757
:10018000DD1B0008510100082DE9F05F0546002045
:1001900092469B4688460646814640241BE02846F8
:1001A00041464746224600F020F853465A46C01AB8
:1001B000914110D311461846224600F0A7F82D1A97
:1001C00067EB01084F4622460120002100F09EF80F
:1001D00017EB00094E41201EA4F10104DFDC484664
:1001E00031462A464346BDE8F09F202A04DB203AE8
:1001F00021FA02F00021704721FA02F3D040C2F147
:100200002002914008431946704740EA01039B07CA
:1002100003D009E008C9121F08C0042AFAD203E07B
:1002200011F8013B00F8013B521EF9D27047D2B2DF
:1002300001E000F8012B491EFBD270470022F6E7CF
:1002400010B513460A4604461946FFF7F0FF20464C
:1002500010BD421E12F8013F002BFBD111F8013BEB
:1002600002F8013B002BF9D1704710B5044604E0B9
:100270000B7800F8013B03B1491C521EF8D220460E
:1002800010BD30B504460020034600E05B1C9342DD
:1002900003D2E05CCD5C401BF8D030BD2DE9F047C7
:1002A00091460F4680460446002614F8015B2DB1A6
:1002B00000F03CF80068405DC007F6D12B2D02D05D
:1002C0002D2D18D0641E4A463946204600F032F8DB
:1002D00027B13968A14201D1C7F8008071054FF0FC
:1002E00002040BD54042002803DD01F0B7FC046096
:1002F000A007BDE8F08746F48066E4E70028F8DA56
:1003000001F0ACFC04606FF00040F2E7202A04DB4F
:10031000203A00FA02F1002070479140C2F1200318
:1003200020FA03F3194390407047000000487047DB
:10033000986200082DE9F05F824600780027154694
:100340008B460AF10104B946302801D09DB113E073
:1003500014F8010B0127782803D0582801D045B1A3
:100360000AE00DB1102D07D10027102514F8010B5C
:1003700002E0082500E00A250026B0460EE005FB55
:10038000080005FB06F1012701EB10461FFA80F873
:10039000B6F5803F00D3B94614F8010B294600F0AA
:1003A0002BF80028EBDABBF1000F05D00FB1641E6B
:1003B00000E05446CBF80040B9F1000F06D001F040
:1003C0004DFC02210160C81EBDE8F09F48EA0640CE
:1003D000FAE70000064C074D06E0E06840F0010334
:1003E00094E8070098471034AC42F6D3FFF7B4FE08
:1003F00014630008346300083A2800D2303820F033
:100400002002412A01D3A2F13700884201D34FF0E4
:10041000FF30704770B5044600688168C943C9075A
:100420001CD1816821F00101816000F087FE054642
:100430000FE000BF00F082FE401B022809D9A06A2D
:1004400040F01000A062E06A40F00100E06201208C
:1004500070BD20688068C043C007EBD0002070BD2D
:10046000F8B500260446009600688168C943C907AC
:1004700028D0816841F00101816013481349006868
:10048000B0FBF1F000E0401E00900028FBD100F02E
:1004900055FE054611E000BF00F050FE401B02284B
:1004A0000BD9A06A40F01000A062E06A40F00100A1
:1004B000E06284F824600120F8BD20688068C043B1
:1004C000C007E9D10020F8BD5800002040420F00CD
:1004D000FEE77047064908B509684FF4FA52B1FBC8
:1004E000F2F14143009100BF491E0091FBD208BDCB
:1004F0005800002038B50446006800F58050816936
:1005000041F480118161206800F58050806900907D
:100510000120FFF7DFFF2068009900F5805081611E
:1005200038BD00002DE9F041044621B14FF40060D0
:10053000E060C000A060E0690025002861D0284686
:100540002368402619683A4A1140D4E902273A4301
:10055000024342F4007008431860206807680120D5
:1005600000F002FA2068076020684660206846684C
:10057000012000F0F9F92068466020688560206855
:10058000C560216888694FF64172104040F08000D4
:10059000886120688669012000F0E6F9206886619C
:1005A0002068C5612068C569012000F0DDF9206878
:1005B000C561226802F5805290691E4908401E49B3
:1005C00001439161206800F580508569012000F0A9
:1005D000CBF9206800F5805085612068174900F547
:1005E00080500160206800F580500568012000F00F
:1005F000BBF9206800F580500560A069012803D090
:1006000009E04FF480609BE7206800F58050C169E5
:100610000B4A1143C16160690A4982880A64027801
:10062000D0F8010042EA00204864BDE8F0810000F3
:100630000F8120FF233FDEF8040020020020C102CA
:100640004000010000800240F8B50024009490F8BA
:1006500024202546012A12D0012280F824204A684D
:100660001F23072A0DD20668776B521E02EB820207
:1006700093409F430B6893401F43776319E0022028
:10068000F8BD06680D2A0AD2376BD21F02EB820230
:1006900093409F430B6893401F43376309E0F76A19
:1006A0000D3A02EB820293409F430B6893401F4335
:1006B000F7620A68072306680A2A0AD3F7680A3A23
:1006C00002EB420293409F438B6893401F43F760C5
:1006D00008E0376902EB420293409F438B689340E6
:1006E0001F4337610A68102A01D0112A20D1124B0A
:1006F00002689A4217D193681B0219D4936843F495
:10070000000393600968102912D10C490C4A09684A
:10071000B1FBF2F101EB8101490000E0491E0091BB
:100720000029FBD104E0816A41F0200181620124AB
:1007300080F824502046F8BD0024014058000020D5
:1007400040420F000068C06C704700002DE9F04186
:100750004FF0000704003D467ED0A06A002628B96D
:10076000E66284F82460204600F07EF82046FFF719
:1007700051FEA16A01F01001014304D0A06A40F0CB
:100780001000A06268E0A16A21F4885141F00201E2
:10079000A1626268E169E3680A4347EA43010A43E8
:1007A000A1684FF48077B94208D0012906D0002112
:1007B000D4F814C0BCF1010F02D00AE03946F7E7C3
:1007C000F3B1A36A43F02003A362E36A43F0010399
:1007D000E3622368D3F804C02CF4694C4CEA010CA2
:1007E000C3F804C023689968DFF870C001EA0C01FF
:1007F00011439960A168B9420BD0012909D00CE0DE
:10080000DFF85CC0A3690CEB43330B4343F4006196
:10081000DFE7218A0D05A5F580152168CB6A23F451
:1008200070032B43CB62216889680E4B19409142BB
:1008300008D1E662A16A21F0020141F00101A16242
:10084000BDE8F081A06A20F0020040F01000A06234
:10085000E06A40F00100E0620120F1E7FDF7E1FF0E
:1008600000E0FFFFFE0E1FFF00B500680B4985B0DA
:10087000884210D10A48816941F400718161806920
:10088000694600F40070049010200090032001904D
:10089000044800F067FB05B000BD000000240140E3
:1008A000001002400008014070B5044690F8240092
:1008B00001280DD0012084F824002046FFF7D0FD48
:1008C00002004FF0000005D084F82400104670BDEF
:1008D000022070BDA16A40F20123994341F4807166
:1008E000A1621F4D23681F49AB4218D10E6816F450
:1008F000702F14D0A66A46F48016A6620E6876059C
:1009000005D5A66A26F4005646F48056A662A66A65
:10091000F6040AD5E66A26F00606E66206E0A66A4E
:1009200026F48016A6625E68E9E7E06284F8240097
:100930006FF00200186020688368C3F34243072BFE
:1009400005D1A84208D1096811F4702F04D081683C
:1009500041F480118160B9E7816841F4A001F9E7B1
:10096000002801400424014070B5044600F0E6FB75
:100970000546601C02D004480078044400F0DEFB09
:10098000401BA042FAD370BD4C0000202DE9F0437B
:1009900090F845400025012C0DD04FF0010C80F857
:1009A00045C0022480F8444044F2F4574FF0004917
:1009B0005E1E816217E00220BDE8F08301EB0514A2
:1009C000C4F80090C5EBC51808EB480802EB88088E
:1009D000C4E90178B54204D204F11008C4F80C80CF
:1009E00000E0E1606D1C9D42E8D3026802F5805290
:1009F000D16080F844C0002180F845100846DBE74C
:100A00002DE9F043914690F845200024012A0AD0B0
:100A1000012680F84560022280F844204FF4801CB3
:100A20005D1EC1621BE00220BDE8F08301EB0412F1
:100A3000C2F800C0C4EBC41707EB470809EB8807EE
:100A40009760C7691FB9176847F440071760AC4241
:100A500003D202F11007D76000E0D160641C9C4211
:100A6000E4D3026802F58052116180F844600021ED
:100A700080F845100846D7E72DE9F8434FF0000508
:100A80000400A946009503D094F8440018B107E08B
:100A90000120BDE8F88384F84550204600F0BEF8F8
:100AA0005948416821F4000141604168226A1143BC
:100AB0004160206800F58050016841F0010101604B
:100AC00000F03CFB06464FF4FA7708E000F036FBF6
:100AD000801BB84203D9032004F8440F57E0206874
:100AE00000F580500068C007F0D12068006920F050
:100AF0001C0600F0B7FC4549454A0144914202D228
:100B000046F0080606E0434908444349884201D2BA
:100B100046F00C06206806614FF400420021204692
:100B200000F0E4F90126A8BBFF20FFF71DFF606875
:100B300088B300F003FB804641F288376A46012102
:100B4000204600F0CBF800F0F9FAA0EB0800B8421C
:100B500017D800984007F1D54FF480520021204665
:100B600000F0C4F9B0B900F0E9FA80466A46012104
:100B7000204600F0B3F800F0E1FAA0EB0800B8421C
:100B80000AD901212046FFF7CDFC04F8446F032069
:100B900065707EE724E018E000988006E6D56A4696
:100BA0001021204600F09AF8D0B90098410703D5EB
:100BB0004FF40061E16000E0E560800701D5A560C9
:100BC00019E04FF48040A06015E0E068A168C0081B
:100BD00040EA510082B20021204600F087F930B18E
:100BE00001212046FFF79EFC84F8446050E740F660
:100BF000FF70FFF7B9FE49462046FFF793FC84F8E3
:100C00004460002045E700000000014000D3CEFE14
:100C1000C0E1E40040F1E9FD40787D012DE9F043B9
:100C20000068294985B088424BD12848416941F480
:100C300080414161416901F480410491416941F47D
:100C400000414161416901F400410491416941F46D
:100C5000803141614069022500F48030032600950F
:100C6000CDE903600124DFF86890CDE901546946BD
:100C7000484600F077F982200027CDE90007DFF829
:100C8000548069460294404600F06CF90420CDE996
:100C90000005CDE902466946404600F063F9302080
:100CA000CDE9000769460294484600F05BF94FF42D
:100CB0006050CDE90005CDE902466946064800F0DE
:100CC00051F905B0BDE8F0830080024000100240F9
:100CD0000010014000080140000C01402DE9F047E0
:100CE000044690F84400914682281DD0822084F862
:100CF0004400226810694FF6FF7500F01C03208A3B
:100D000005EAC02018434FF4F86303EA8111014358
:100D100021F0020040F00105156100F00FFA0646CF
:100D200001274FF4803810E00220BDE8F08700BFB3
:100D300000F004FA801B404505D304F8447F0020EE
:100D400060700320F1E720680569E807F0D12068AA
:100D5000406981B2C9F8001084F844700020E4E7CB
:100D6000F8B5044690F84500012839D0012584F8EB
:100D70004550022084F8440020680026016841F0B4
:100D8000080101602068006800902846FFF7A2FB78
:100D90002168009808602068016841F00401016042
:100DA0002068006800900120FFF794FB21680098FC
:100DB00008602046FFF79EFB206800F5805081699F
:100DC00041F400518161206800F58050816941F053
:100DD0000201816184F8445084F845600020F8BD28
:100DE0000220F8BDF0B590F845200023012A11D06B
:100DF000012780F84570022280F84420002459B170
:100E0000C66A3268002A0ADA122100F8441F4470C8
:100E10000120F0BD0220F0BD00F8447FF7E740F26A
:100E2000F455A9420BD9B1FBF5FCB1FBF5F205FB7A
:100E30001C1CBCF1000F00D0521C012A43D13268A7
:100E400042F040523260C26AC1F30C015160C16A83
:100E50000A6842F000420A60C16AC968C16234E0AF
:100E6000D6F800C02CF0405CC6F800C033B9C66AA2
:100E7000D6F800C04CF0805CC6F800C0C66A756049
:100E8000561EB34214D1C66AD6F800C04CF0005CBE
:100E9000C6F800C0C2F10106C6EBC61606EB460650
:100EA000D0F82CC001EB8606C6F30C06CCF8046023
:100EB000C66AD6F800C04CF0004CC6F800C0C66A3E
:100EC0005B1CF668C6629342CAD3016801F5805183
:100ED0004A69520705D504224A61016801F580512B
:100EE0004C6000F8447F44700020F0BD2DE9F041D3
:100EF000044690F8440042281ED0422084F8440062
:100F0000236818694FF6FF7600F01C05208A06EA70
:100F1000C02028434FF4F86505EA8111014390B2DF
:100F200041F0030558612068056100F007F90646A5
:100F300001274FF4803810E00220BDE8F08100BFA7
:100F400000F0FCF8801B404505D304F8447F0020E6
:100F500060700320F1E720680569E807F0D184F8A4
:100F60004470EAE72DE9F84FDFF890A100220AF17A
:100F7000040B144601274FF00F090BF1040E00BFBC
:100F80000B6807FA04F52B40AB4274D1DFF870C14F
:100F90004E68A6EB0C0866452BD00DDC032E34D032
:100FA00005DC36B3012E19D0022E2FD11BE0112EF5
:100FB00016D0122E2AD119E0B8F5881F19D006DCF8
:100FC000B8F5803F15D0B8F5801F1FD111E0B8F5F6
:100FD000001F0ED0B8F5041F18D10AE0CA6815E04A
:100FE000CA68121D12E0CA6808320FE0CA680C32E3
:100FF0000CE08A682AB1012A4FF0080203D045614B
:1010000004E0042202E0056100E00022FF2B01D889
:10101000064601E000F104064FEA840501D9A5F176
:101020002005D6F800C009FA05F82CEA080C02FAE7
:1010300005F54CEA050CC6F800C04D68ED0057D523
:10104000304DAE6946F00106AE61AD6924F003068D
:1010500005F0010500952C4D06EB050CDCF8085059
:10106000A6074FEA167809FA08F6B543274EB042AC
:1010700002D1002610E03BE0254EB04201D101260E
:101080000AE0244EB04201D1022605E0224EB042D1
:1010900001D1032600E0042606FA08F62E43CCF818
:1010A00008604D68DAF80060ED03554601D51E432F
:1010B00000E09E432E604D68DBF80060AD035D46A6
:1010C00001D51E4300E09E432E604D68DEF80060AF
:1010D000ED02754601D51E4300E09E432E604D682B
:1010E000AD020E4D2E6801D51E4300E09E432E60DA
:1010F000641C102CFFF444AFBDE8F88F00040140DD
:1011000000001110001002400000014000080140E2
:10111000000C014000100140001401400C0401408B
:101120008068084000D001207047C2684A40C26011
:1011300070470AB1016170470904FBE70148806804
:10114000704700004C00002070B5040011D02168E9
:101150004CF6CC400860216845F255500860D4E94F
:10116000000141602168A0688860FFF7E7FF05463D
:1011700009E0012070BD00BFFFF7E0FF401B3028F1
:1011800001D9032070BD2068C0680028F4D121680F
:101190004AF6AA200860002070BD00684AF6AA211D
:1011A0000160002070470000024881680278114405
:1011B000816070474C000020074810B5016841F07D
:1011C00010010160032000F091F8002000F006F803
:1011D00000F024F8002010BD0020024070B50D4D35
:1011E00004464FF47A712878B1FBF0F00A49096897
:1011F000B1FBF0F000F0AAFB48B9102C07D2002296
:101200002146501E00F052F800206C6070BD012095
:1012100070BD00004C00002058000020214808B597
:10122000816941F001018161816901F00101009151
:10123000C16941F08051C161C06900F080500090E7
:10124000032000F053F8002211466FF00B0000F06D
:101250002DF8002211466FF00A0000F027F8002256
:1012600011466FF0090000F021F800221146501FCE
:1012700000F01CF800221146101F00F017F80022A1
:101280001146901E00F012F800221146501E00F088
:101290000DF80548416821F0E06141F000714160BE
:1012A00008BD00000010024000000140F0B40E4BE9
:1012B0001B680C46C3F30223C3F10705042D00D9B4
:1012C0000425191D072901D2002300E0DB1E012699
:1012D00006FA05F1491E214099409E40761E1640AF
:1012E0003143F0BC00F026BC0CED00E0064900F0F4
:1012F000070208684FF6FF03184040EA0220034A3D
:1013000010430860704700000CED00E00000FA0593
:101310002DE9F047DFF83C8105460E46D8F800007D
:1013200000F00700B0420CD2D8F8001021F00701FD
:101330003143C8F80010D8F8000000F00700B042B0
:1013400063D12878444C800705D56068A96820F0EF
:10135000F000084360602878C00745D0686801281D
:1013600016D02168022816D0890700294DDA616855
:1013700021F0030101436160FFF7E0FE6968074661
:1013800041F2883001290FD00229814619D027E087
:1013900021688903E9E78901E7E700BFFFF7CEFE8F
:1013A000C11B494501D918E081466068C0F381003E
:1013B0000128F3D118E000BFFFF7C0FEC11B49456B
:1013C0000BD86068C0F381000228F5D10CE000BFA3
:1013D000FFF7B4FEC11B494502D90320BDE8F087E1
:1013E000606810F00C0FF3D1D8F80010404601F0FF
:1013F0000701B1420BD9016821F0070131430160B7
:10140000006800F00700B04201D00120E6E728782C
:10141000400705D56068E96820F4E0600843606033
:101420002878000706D56068296920F4605040EAF2
:10143000C100606000F01CF86168084AC1F3031144
:10144000515CC840064908600020FFF7C7FE002035
:10145000C4E700000020024000100240F8600008CD
:101460005800002001480068704700005800002024
:10147000F0B523A289B00FCA04AC84E80F0024A100
:101480000FC98DE80F0026494A68264802F00C0370
:10149000042B2FD0082B2DD104A8C2F38343C45CA6
:1014A000D00329D5C86A00F00F001DF80020C86AD3
:1014B000C00316D5C86AC96AC0F30310C1F303217B
:1014C000401C891CA0FB0223A1FB0416154F00251C
:1014D000A1FB070C06FB07C601FB0561FEF754FEE6
:1014E00003E010486043B0FBF2F09DF81D10A142EC
:1014F00000D1400809B0F0BD0B486043FAE7000096
:10150000000004050607080900000000000D0000A7
:101510000102030405060708090A0B0C0D0E0F1043
:101520000010024000127A0000093D002DE9F84F3A
:1015300004460078EA4DC00748D06868C0F38100CF
:10154000012807D06868C0F38100022809D16868C3
:10155000C00306D52868800338D5A06800286FD05E
:1015600034E0A068B0F5803F0BD010B1B0F5A02FEB
:1015700011D0286820F480302860286820F480206A
:1015800002E0286840F480302860A06888B1FFF746
:10159000D5FD064609E0286840F480202860F0E781
:1015A000FFF7CCFD801B642878D828688003F7D526
:1015B0000CE0FFF7C3FD064605E000BFFFF7BEFDE8
:1015C000801B6428F0D828688003F7D42078C54EA3
:1015D00080074FF001094FF000073CD5686810F014
:1015E0000C0F07D06868C0F38100022809D1686831
:1015F000C00306D42868800715D5606901281FD16B
:1016000011E06069B8B1C6F80090FFF797FD804619
:1016100006E000BFFFF792FDA0EB08000228C3D848
:1016200028688007F6D52868A16920F0F80040EA0C
:10163000C10028600FE03760FFF780FD804607E0BB
:101640002DE100BFFFF77AFDA0EB08000228ABD820
:1016500028688007F6D4207800072ED5A248E169D3
:10166000E9B1C0F80090FFF769FD804606E000BFD1
:10167000FFF764FDA0EB0800022895D8686A800790
:10168000F6D59A484FF4FA510068B0FBF1F000909B
:1016900000BF0098411E0091FAD20EE0B0E0076052
:1016A000FFF74CFD804605E0FFF748FDA0EB080082
:1016B000022887D8686A8007F6D42078400763D567
:1016C000E8694FF00008C00009D4E86940F0805094
:1016D000E861E8694FF0010800F08050009084480C
:1016E0000168C90512D40168834641F48071016024
:1016F000FFF724FD824605E0FFF720FDA0EB0A007E
:1017000064287DD8DBF80000C005F5D520690128E4
:101710000AD008B1052813D0286A20F001002862F9
:10172000286A20F0040002E0286A40F001002862E4
:10173000206941F2883B98B1FFF700FD82460BE03B
:10174000286A40F004002862EEE700BFFFF7F6FCCD
:10175000A0EB0A01594553D8286A8007F6D50CE05A
:10176000FFF7ECFC824605E0FFF7E8FCA0EB0A017E
:10177000594545D8286A8007F6D4B8F1000F03D040
:10178000E86920F08050E861E06AD0B36968C90375
:1017900007D56968C1F38101022902D1E96AC90349
:1017A0007DD4022808D0E86A20F48030E862B76669
:1017B000FFF7C4FC80463BE02868C00005D5E86A16
:1017C000616B00F0F000884269D1B766FFF7B6FCA4
:1017D000804605E0FFF7B2FCA0EB0800642874D84F
:1017E00028680001F6D4E86A616B20F0F000084335
:1017F000E862E86A216B20F470600843E86201E067
:1018000063E018E0C6F86890FFF798FC804605E0B2
:10181000FFF794FCA0EB0800642856D82868000164
:10182000F6D508E0FFF78AFCA0EB080064284CD846
:1018300028680001F6D4206A90B36968C1F3810179
:1018400002294AD00228376603D0FFF777FC044606
:101850003EE0FFF773FC074605E000BFFFF76EFCB4
:10186000C01B022831D828688001F7D4606AB0F51F
:10187000803F09D1E86A61680843E862E86AE16884
:1018800020F00F000843E862D4E9090108436968C1
:1018900021F4741108436860C6F8609001E01CE010
:1018A00019E0FFF74BFC044605E000BFFFF746FCDC
:1018B000001B022809D828688001F7D50BE000BF7B
:1018C000FFF73CFC001B022802D90320BDE8F88F7B
:1018D00028688001F4D40020F8E70120F6E7000032
:1018E00000100240000042428004424258000020A2
:1018F000007000404FF0E0210428086903D020F078
:1019000004000861704740F00400FAE70E48002127
:1019100001224369C82B02D25B1C436101E0427083
:1019200041618369B3F5487F02D25B1C836101E0AA
:1019300082708161C369022B02D25B1CC361704754
:10194000C161C270704700000000002010B5401E49
:10195000B0F1807F01D3012010BD4FF0E024606121
:101960000F21601700F0E6F80020A0610720206139
:10197000002010BD10B5FFF7C9FF10BDFEE7000045
:101980003EB510480E490124016000218160C1600C
:1019900041614FF460220461C2614160FEF7D6FEEE
:1019A00000B1FEE70420CDE900040320029069465F
:1019B0000448FEF749FE002800D0FEE73EBD0000C7
:1019C00000240140040100202DE9F0412F4886B099
:1019D000816941F020018161816901F02001049158
:1019E000816941F010018161816901F01001049168
:1019F000816941F004018161816901F00401049170
:101A0000816941F0080181618069214F00F008007F
:101A10000490002240213846FFF78BFBDFF87480EA
:101A2000002201214046FFF784FB4FF4707001242F
:101A3000002502268DE8710069463846FFF792FAC4
:101A40000820CDE900040294694638460394FFF764
:101A500089FA01AA009482E8700069464046FFF7BF
:101A600081FA4020CDE90005CDE9024669464046AD
:101A7000FFF778FA4FF4A0708DE8710069460648C8
:101A8000FFF770FA06B0BDE8F081000000100240D8
:101A900000100140000C0140000801403EB5204C00
:101AA000FF2020706070A070F820E07001F082FBD1
:101AB000201F1C4A0178D0F80100A4F1080341EA74
:101AC0000020A4F1100108602078D4F8011040EA49
:101AD0000120A4F10C010860201D0178D0F801005C
:101AE00041EA0020A4F1080108600F4900208DE8B8
:101AF00007001A1F111F0D4801F08CFE0B4801F062
:101B0000E3FE0A4890F82B004007084803D5BDE8DB
:101B10003E4001F015BFBDE83E4001F0DBBE0000D5
:101B200044000020612500084D260008C809002057
:101B3000FEE770470907090E002806DA00F00F00DB
:101B400000F1E02080F8141D704700F1E02080F8DB
:101B5000001470477047704710B5FFF725FBBDE8CC
:101B60001040FFF707BF000070B594B001250024B6
:101B70002804CDE902040226CDE908600095059508
:101B800001944FF4E010CDE90A046846FFF7CEFC5B
:101B900000B1FEE70F20CDE90E064FF48060CDE9DD
:101BA000104002210EA81294FFF7B2FB00B1FEE72D
:101BB000FFF758FC4FF47A71B0FBF1F0FFF7C6FE67
:101BC0000420FFF797FE0448056700221146501EC7
:101BD000FFF76CFB14B070BD000042421048016872
:101BE00041F00101016041680E4A11404160016805
:101BF0000D4A11400160016821F4802101604168B3
:101C000021F4FE014160016821F0A05101604FF410
:101C10007F0181600021C1620449C00308607047F0
:101C2000001002400000FFF0FFFFF6FE08ED00E0AC
:101C3000FEE700000FB4084B10B504A902AA0398F0
:101C400000F020F8044602A9002000F07BF92046AD
:101C500010BC5DF814FB0000451F000800487047E9
:101C60000001002002E008C8121F08C1002AFAD1B2
:101C700070477047002001E001C1121F002AFBD10C
:101C8000704700002DE9FF4F8DB09B460F4604467C
:101C9000002606E025280BD05A460F999047641C71
:101CA000761C20780028F5D111B03046BDE8F08FC1
:101CB0000025A8460122984900E0054314F8013F99
:101CC000203B02FA03F00842F7D120782E2817D1E2
:101CD00014F8010F45F004052A280ED06FF02F02EA
:101CE0002078A0F1300109290AD808EB880102EB1D
:101CF000410100EB0108641CF2E757F8048B641CF7
:101D000020786C280DD004DC4C2812D06A2811D120
:101D100004E074280DD07A280CD10AE045F40015AF
:101D200007E0617845F48015814202D1641C05F515
:101D30008015641C2278692A45D008DC002AB3D0BB
:101D4000582A69D0632A10D0642A08D13BE0702A4F
:101D500067D0732A13D0752A5CD0782A5CD01046DD
:101D60005A460F999047761CD3E017F8040B8DF86C
:101D7000000000208DF80100E946012003E057F83B
:101D8000049B4FF0FF3069074FF0000501D40AE0D3
:101D90006D1C45450DDA8542FADB19F8051000295E
:101DA000F6D106E06D1C8542FCDB19F80510002910
:101DB000F8D12E4404E019F8010B5A460F999047C8
:101DC0006D1EF8D2A5E00A200021CDE90801C5F377
:101DD000025002280DD001CFC117031E71F100037C
:101DE0000DDA4FF0000CD0EB0C006CEB01012D2351
:101DF00008E0FF1D27F00707F7E80201EDE72B05D4
:101E000004D52B238DF8283001233BE0EB0739D094
:101E10002023F7E70A2000E010200021CDE9080187
:101E200007E01020002145F00405CDE908014FF03E
:101E30000808C5F3025002280FD001CF00214FF04F
:101E4000000A2B071FD5702A0DD0DDE908C38CF0DE
:101E5000100C5CEA030C0CD015E0FF1D27F00707FF
:101E6000F7E80201EBE740228DF828204FF0010A45
:101E70000BE050EA010306D030238DF828308DF8AE
:101E8000292002239A46582A04D024A20DF12009C1
:101E90000B9209E026A2F9E7DDE90823FEF774F9C1
:101EA0000B9B9B5C09F8013D50EA0102F4D1ADEBBC
:101EB000090020300890680701D44FF00108089904
:101EC000884502DDA8EB010000E0002080460025E7
:101ED00006E00AA85A46405D0F9990476D1C761C93
:101EE0005545F6DB04E030205A460F999047761CA2
:101EF000B8F10001A8F10108F5DC05E019F8010BC3
:101F00005A460F999047761C0899481E0890002958
:101F1000F4DC641CC5E600000928010030313233CE
:101F20003435363738396162636465660000000015
:101F300030313233343536373839414243444546FF
:101F4000000000000A68531C0B601070704700000E
:101F500010B504464068804722462068BDE810401E
:101F6000014901F01FBF0000511F0008826812687C
:101F70000A6080680160704781680868002801D0A5
:101F800002680A60704700000B490A4A4A600B4A1F
:101F90004A600A6922F001020A610A6942F00202FB
:101FA0000A614861086940F040000861C868C007DC
:101FB000FCD170472301674500200240AB89EFCD7B
:101FC00070B50A4D0646002404EB440005EBC00042
:101FD000017D29B18068B04202D1204600F076F838
:101FE000641CE4B20A2CEFD370BD00009887002077
:101FF0002DE9FC5F0A27054600208B46DFF8C890D4
:102000003E4639463C4601908646009000EB400A29
:1020100009EBCA030A291A7D0AD0B2B165B1D5F815
:1020200000C0D3F80480C44506D140B2BDE8FC9F8F
:10203000002AF3D141B208E0012A14D0022A04D3C5
:102040005A8A724501D346B29646401CC0B20A284D
:10205000DCD35FEA8B724FF0FF30E7D40A2913D04C
:1020600015DACCB221E059F83A20002A5A8A05D074
:10207000019B9A42E9D344B20192E6E7009B9A425F
:10208000E3D347B20092E0E75FEACB71CED00A2EED
:1020900001DAF4B206E00A2F01DAFCB202E00A2CFF
:1020A000C4DAE4B2204600F011F82DB104EB44028A
:1020B00009EBC2002968416004EB440209EBC2004D
:1020C0000021418260B2B1E79887002070B5074CCB
:1020D00000EB4005002654F8350018B101F099FDD9
:1020E00044F8356004EBC500067570BD9887002084
:1020F0002DE9FC470D00074648D07C684FF48078F6
:10210000208840453FD1207906283CD160790428B9
:1021100039D16088082836D1D4F80E000190A16921
:10212000686820B1814202D10126334601E00026D1
:10213000022304F10802914601A9284600F0D0F9D3
:10214000E08840451FD1F6B1022001F031F8E0806F
:10215000D4F80E00A0616868C4F80E00A068C4F846
:102160001200A089E082D5F82500A060B5F829000A
:10217000A08140F60600009004F112034A46394659
:10218000284600F03DFA384601F043FDBDE8FC87E3
:10219000FEB504460E4615462146106800F022FBA7
:1021A00008B1334B3CE02868C0F303110E2922D05C
:1021B000A168636800EA01020B409A4208D080B22D
:1021C000A0F57E41A93903D0E06898B304F10C056D
:1021D000284B29491A7802EB420001EBC000077D29
:1021E000022F2BD32F684068874227D131462046E3
:1021F00000F044F8FEBD01208DF8040000208DF8A9
:1022000005005E208DF80600687801AB00F07F00C5
:102210008DF80700A8788DF80800E8788DF8090097
:102220004FF40060009004F125023146204600F092
:10223000E7F9FEBDFFE76FF00300FAE75FF000008B
:1022400000EB400201EBC202177D022F06D32F687C
:102250005268974202D1C2B21A70C7E7401C40B21E
:102260000A28EDDB32462946204600F037F8E0E741
:1022700008610008F4000020988700202DE9F84349
:1022800006468846144802EB420100EBC10404F103
:102290000C05207D022813D1608A0327B0F58E7FBC
:1022A00004D9211D304600F0D5F807E0B0F5877F4E
:1022B00006D32A46211D304600F0D2F800B9277512
:1022C0004FF4006000902B4606F12502414630464F
:1022D00000F096F9BDE8F883988700202DE9FC5FAF
:1022E0008246253001908846086814464FF0FF3634
:1022F000514600F077FAD0B9D8F80000C0F30311C6
:102300000E2914D0B8F1000F11D080B1524601212E
:102310004046FFF76DFE07000BD4DFF8A8B007EBCF
:1023200047090BEBC905287D28B144B10EE06FF0D9
:102330000F00BDE8FC9F01202875C5F808A04146A4
:10234000504600F087F80646002CF2D0287DD8468B
:1023500002280DD31C4805F10C03214607704FF4E9
:10236000006000905046019A00F04AF9064627E0C6
:10237000012825D12046017B01290ED001890022A8
:10238000022001F0EBFA050018D0214601F0C0FB55
:1023900058B1284601F03DFC10E000680028EAD161
:1023A0002546204601F0BFFC45B158F8390008B178
:1023B00001F02FFC48F83950002601E04FF0FF36BD
:1023C0003046B6E798870020F40000202DE9FF4F43
:1023D00081B09346DDE90F9800261F4632461C2146
:1023E0000220DDF838A001F0B9FA05002FD06C68A2
:1023F000119800F0DDFEE0803868A060B888A08108
:10240000D9F80010C4F81210B9F80400E082DAF824
:102410000000C4F80E00D8F80000A0614FF48070EE
:10242000208008206080062020710420607140F622
:1024300006000090DDE901025B46294600F0E0F865
:10244000284601F0E6FB304605B0BDE8F08F4FF0BE
:10245000FF30F9E7014A00F003B800000861000806
:102460007FB5064D031D0124CDE90035CDE90214E9
:1024700021331946FFF7AAFF04B070BD0E610008B2
:1024800070B5164D002400BF04EB440005EBC002FC
:10249000107DF0B1518A491C89B25182B1F5967F05
:1024A0000AD2012806D003280AD004280AD001281D
:1024B0000BD00EE0052908D32046FFF707FE08E001
:1024C000042000E00220107503E0111D9068FFF762
:1024D000C1FF641CE4B20A2CD6D370BD98870020DB
:1024E000F8B51F4616460D00044634D0286888B358
:1024F000214600F077F968BB2878C0F303100E2856
:1025000029D0224639462846FFF772FD002820DBF5
:1025100000EB40011148022300EBC10213759460E7
:102520003368D360B38813820023538250F831504C
:1025300075B140F831304FF400600090334604F13B
:1025400025022946204600F05BF8284601F061FB91
:102550000020F8BDFFE76FF00F00FAE79887002032
:1025600070B5044640890D460E283CD96068017854
:102570008689CA0714D0012905D006221F49FDF714
:1025800080FE48B10CE0417851B980785E2807D1CF
:10259000607B40F0100002E0607B40F00800607358
:1025A0006FF00D01082E03D0B6F5C16F1BD10FE0FF
:1025B00095F82B00000716D560890E2813DB2046FE
:1025C00001F04FFB78B92946204600F0D1F912E01E
:1025D00095F82B00000706D560890E2803DB2046FE
:1025E00001F03FFB18B1204601F013FB03E0294640
:1025F0002046FFF77DFD002070BD00000861000847
:102600002DE9F04180461E4617460D46069800F01B
:10261000CFFD04460E21284601F023FB18B16FF0D0
:102620000100BDE8F0816868848131680160B1888B
:1026300081803968C0F80610B98841814046294632
:10264000D8F81820BDE8F0411047000010B57321FC
:1026500080F82C10742180F82D1004494161044940
:10266000816100F0D3FC002010BD00009121000822
:10267000053100080A46032100F07AB82DE9FE4F23
:102680008A463A490446D1F8088098F800000007C5
:10269000850E142D65DB6089042862D3606800789C
:1026A00000285ED008285CD1486901F11407C0F306
:1026B00003120E2A55D08946096800F093F80028C5
:1026C0004FD1208908284CD305F10E010E46204633
:1026D00001F0C7FA28B320890022284481B20220E1
:1026E00001F03CF906003CD0718905F108008142F7
:1026F0000ED32A4641467068FDF787FD6942304691
:1027000001F0AFFA20B92146304601F001FA18B1C4
:10271000304601F07EFA24E0204601F07AFA344691
:1027200004E07142204601F09CFAD0B929462046C7
:10273000666801F096FAA0B960683968FF22C16046
:10274000D9F810100161002131707180027241814D
:1027500001228DE806040A46FF233946204600F090
:10276000D5F92046BDE8FE4F01F053BA7052002063
:102770002DE9FF4791468846064600222421012084
:1027800001F0ECF8050027D06C6877681C2284F80B
:10279000008084F801904FF00008A4F80480A4F8A9
:1027A0000680686871680830FDF72FFDF8680390AF
:1027B00003A800F0D7FA60B1A4F802800122CDF896
:1027C0000080CDE90120FF2303AA0021284600F064
:1027D0009DF9284601F01DFABDE8FF870A460B2146
:1027E000FFF7C6BF421C12D088B191F82B20920788
:1027F0000BD54B68834208D0896800EA01020B4080
:102800009A4202D10143491C01D0002070470120A7
:10281000704700002DE9F74F86B005460798002461
:102820001427408CA61F1438C11700EB5170C0F359
:10283000CF0B68680590017801F00F01052907D1D9
:10284000C08800F0B5FCC0F30C010291800403D5F0
:10285000304609B0BDE8F08F288914381FFA80F897
:1028600075E000BFB8EBCB0F01D34FEACB0080B2CD
:10287000039000221421022001F070F85FEA000AA0
:102880006CD01422DAF804000599FDF7BEFCDAF8E2
:1028900004000490039E2BE06889C01B84B2A6420A
:1028A00000D2344614B3052000F0A8FF5FEA000907
:1028B00051D068684B463844CDE9000402222146D5
:1028C000042001F0DFF80090F0B3284601F02BFA65
:1028D0002649C9E904155046009901F0FCF8301B5F
:1028E0000604360C06D000272D68D5E72D68002792
:1028F000002ED1D1381987B20798408C1438404542
:102900000298C0F30C0001DA40F4005000F050FCD3
:102910000499C8800398143080B200F049FC0499EF
:10292000488004980021418107985146089A4369DC
:102930009847504601F06DF90399A8EB01001FFA82
:1029400080F80298584400E00BE080B202905FEA01
:10295000080087D17DE7504601F05BF94FF0FF306A
:1029600077E7484600F02CFAF5E70000F52F00085D
:102970002DE9F05F456806460F4628780421B1EB43
:10298000101F03D0304601F044F98AE000F00F0038
:102990004FF6FF7101EA8008688800F009FC0446E0
:1029A0003089A04203D92146304601F092F971895D
:1029B0004145E7D33089A042E4D3B8F1140FE1D305
:1029C0002969DFF840A1C1F303100E28CAF81410DA
:1029D000EA68CAF8102015D0DFF82CB14FF00109D1
:1029E0003C4600BF94F82B00C00715D0606898B132
:1029F000DAF8142082421DD021461046FFF7F2FE7D
:102A0000C0B909E097F82B00C00703D0786808B177
:102A10003C460FE000240DE0B9F1000F04D04FF068
:102A20000009DBF8004000E02468BC4200D12468C3
:102A3000002CD7D13946DAF81000FFF7D3FE002872
:102A4000A0D19AF81000D146C0F303100E2899D0F7
:102A5000002C97D0E88830F0C00005D0304600F058
:102A6000B9F806001DD07568C9F80850C9E90047D3
:102A7000297830460907890EA9F80C10C8F1000121
:102A800001F0EFF8687A012818D0062811D0112833
:102A90000AD04F462146D9F81400FFF7A3FE90B1A3
:102AA0001FE00020BDE8F09F3946304603F048FAA9
:102AB0001AE03946304601F071FC15E039463046DF
:102AC000FFF7DCFD10E0387DC0F303100E2808D0BE
:102AD0004146304601F0C8F8022130467560FFF7E4
:102AE000C9FD304601F095F80021C9F80010C9F879
:102AF0000410C9F80810A9F80C10C9F81010C9F88A
:102B00001410CEE77052002090000020FEB5DDE9E1
:102B10000954089E1AB109B10F6807B9211D009622
:102B2000CDE9015400F002F8FEBD00002DE9F84F98
:102B30001F46DDE90BA8DDF828B0160089460546DA
:102B40002DD0142101F08DF818B16FF00100BDE80F
:102B5000F88F6C68277284F809A0306820614520DE
:102B6000207084F801B0288900F022FB174F6080A4
:102B70004FF0000AA4F806A0388800F019FBA080E6
:102B80003888401C3880B9F1000F05D0D9F8000012
:102B9000E060A4F80AA006E00D480068F8E768685D
:102BA0006E4600690090B8F8220040B12989814240
:102BB00005D9324641462846FFF72CFEC7E7D8F82C
:102BC00014304046324629469847C0E7F6000020B8
:102BD000106200082DE9F05F45688346287800F010
:102BE0000F0005287ED1E88800F0E2FAC0044FEA21
:102BF0001049688800F0DCFA297801F00F01494299
:102C000000EB81001FFA80F8584600F078FF544E20
:102C10000746308838440A2809D93946284600F042
:102C200093F900285ED0308838440A285AD84FF0EB
:102C3000000A74680CE06069E968884207D1A069FD
:102C40002969884203D1A089A988884203D02468D1
:102C5000002CF0D106E02CB1E88800F0A9FAC004FD
:102C60001DD027E0042000F0C9FD04000AD1394638
:102C7000284600F069F9B8426DDB042000F0BEFD83
:102C8000040068D02021FDF7D9FA0320E0777068AE
:102C900020601422294604F10800746008E0E089ED
:102CA00000F086FAC00405D01422294604F1080079
:102CB000FDF7ABFA308838443080A879800606D416
:102CC000A07F40F00100A07709EB0800A0835946DF
:102CD000204600F079F800283BD0A08B1430A08368
:102CE000606800E037E04568142204F108012F68AD
:102CF0002846FDF78AFAA08B00F05AFA6880A5F8FA
:102D000006A0A5F80AA06FF01309D4F8048009E022
:102D1000494638467D6800F0A4FF3946404600F039
:102D2000DAFE2F68002FF3D171688C4205D10021A3
:102D300005E00868A04202D001460029F9D12046EA
:102D400000F0B8F8404600F0DAFE3188081A30800A
:102D50004046BDE8F09F584600F05BFF0020F8E7D2
:102D6000F800002070B50446134813E090F82B10CB
:102D7000CA070FD04A070DD543685BB18268256842
:102D8000134005EA02069E4214D0890702D4C168A6
:102D90008D420FD000680028E8D10848006840B193
:102DA00090F82B10CA0704D0490702D541680029C2
:102DB00000D1002070BD0000900000209400002091
:102DC0000146052000F0E8BC2DE9F047D1F8048069
:102DD00007460D4600240126B8F8020000F0E8F985
:102DE000014698F8000000F00F00404201EB800916
:102DF000B8F8060000F0DCF9C004020C6868002195
:102E0000016002EB090182801FFA81F8A0F80680B8
:102E10007B681DE05968B1F804C062450DD20360BB
:102E200044B1B4F806C0624535D38988884532D8A4
:102E3000256000E07D606BB115E02CD0CB889A4214
:102E400029D31CB1E388634500D000260B680C46EB
:102E5000002BDFD134B12560E1888288914202D015
:102E6000002600E07D60B97FC90712D066B179689D
:102E700049B14968898831B9016829B14968C08870
:102E80008A88904203D000263046BDE8F087084685
:102E9000F2E70020F9E7284600F031FE0146044839
:102EA0000288511A0180284600F0B3FEF1E70000C5
:102EB000F8000020074B30B40A465C680168844281
:102EC00001D1596000E01160014630BC042000F0DF
:102ED00063BC0000F80000202DE9F041456806467B
:102EE000884668680024818891B90068706014225F
:102EF00006F108016868FDF788F901212846FFF707
:102F00006DFC284600F0FBFD0446284600F081FEDB
:102F100075680AE068682F460568384600F0EFFDDE
:102F2000204484B2384600F074FE002DF2D14146B0
:102F30003046FFF7BFFF03480188091B0180204688
:102F4000BDE8F081F80000202DE9F0471D4F8946CB
:102F5000064600240022134611461546786822E0F2
:102F6000D0F814C0D6F80C80C4450BD1D0F818C0E6
:102F7000D6F81080C44505D1B0F80CC0B6F804806E
:102F8000C44509D06D1C2AB190F81FC092F81F806B
:102F9000C44501D802461946D0F800C0BCF1000F64
:102FA00000D0034660460028DAD11AB11046FFF778
:102FB00093FF04444C4501DA012DCBDC2046BDE8EB
:102FC000F0870000F800002070B50948002544682B
:102FD0000BE0E07F20B1401EE0772546246804E046
:102FE000204624682946FFF777FF002CF1D170BDF9
:102FF000F800002010B50446406908B100F009FE51
:103000002046BDE81040FFF7DBBE00003EB5044699
:10301000394D0020374900902960012169602982DB
:10302000A0228DF8042054228DF805208DF806107A
:10303000BF218DF8071031218DF8081018218DF867
:10304000091001A9C5E90510E8614FF400002862E4
:103050002846FDF711FD28B994F82B0040F0040034
:1030600084F82B000423254A25492348FDF7C8FC92
:10307000234A08234032A2F1C0011F48FDF786FC15
:10308000062084F824006869007884F825006869BF
:10309000407884F826006869807884F82700686999
:1030A000C07884F828006869007984F82900686984
:1030B000407984F82A0040F2DC5024F8220F607A2C
:1030C00040F00A0060720C48FDF74AFE6A460B2188
:1030D0000948FDF703FE00980B2140F00B0206485B
:1030E0000092FDF703FF6A460B210348FDF7F6FD4A
:1030F0003EBD00000080024028520020583A0020C7
:10310000780A00202DE9F05F27480D46C66A0020A6
:1031100083460446D6F808A031E0306800280CDB6E
:103120006F894FF0000818E0A4F2F4525242FDF704
:103130006CF8F6683068002802DA6FF0070025E0C6
:10314000D6F808A0A8EB040000F2F458ABEB04009A
:10315000A9F2F45700F2F45B002407EB040940F2F3
:10316000F451894569680AEB04004144DCD83A46C9
:10317000FDF74BF80BEB07002D683C448346002D10
:10318000CBD101460848FDF72DFE0020064909680D
:1031900001F580514A69920603D520224A61002236
:1031A0004A60BDE8F09F00002852002000BA704736
:1031B00040BA704710B500F01BFA00F0F9FA00F0C1
:1031C00051FB02F0BBFE01F0E7F8BDE8104000F053
:1031D00031BE000086B00027DB48B8463D46077088
:1031E000FDF7EAFFFEF7C0FCFEF7EEFBFEF7C8FBBB
:1031F000D648FDF7ABFAD548FDF756FBD448406AF0
:10320000800002D5D34901200860D048D24930302F
:10321000D24C01600521416040F6AA218160DFF8AF
:1032200040936679DFF83CB389F80060A37989F8A8
:103230000130E27989F80220207A89F803008BF8BE
:1032400000608BF801308BF80220801EBF498BF89C
:1032500003001E226431C44800F096FDBB4E643664
:10326000311DF57406F63200FCF7F3FFF5710A2202
:1032700004F12801301DFDF711F86071F5720A2282
:1032800004F1280106F10800FDF708F8A071F573B4
:103290000A2204F1280106F10C00FCF7FFFFE0719F
:1032A000F5740A2204F1280106F11000FCF7F6FF7C
:1032B000C0B2207294F805C004F12C0ABCF1000FD2
:1032C00020D0A379F3B1E279E2B1D8B189F800C096
:1032D00089F8013089F8022089F803008BF800C0D2
:1032E0008BF801308BF80220801E8BF803002846F3
:1032F000514665623218127D0A54401C0828F9D3E1
:10330000606235E099F8032099F80210CDE90012C7
:103310008D4899F8013099F8002094A13230FEF7D9
:1033200089FC284665623118401C0D750828FAD3BF
:103330002846514665623218127D0A54401C0828FE
:10334000F9D36062814813228BA16430FCF78DFFB2
:10335000854E3046FEF718FE6420FDF705FB7B49DD
:103360001E226431304602F097FEC820FDF7FCFAB9
:103370009AF804000DF1080C9AF807309AF8062024
:103380009AF805108CE80F009AF803109AF80200DA
:10339000CDE900016C4856469AF801309AF80020B1
:1033A0007AA14830FEF746FC30787178F27800EB6D
:1033B0004100B178890001EBC2010844317900EB8A
:1033C0000110717900EB41102070C820FDF7CCFA94
:1033D000C820FDF7C9FAC820FDF7C6FAC820FDF7D6
:1033E000C3FAC820FDF7C0FAFEF758FBC820FDF766
:1033F000BBFAC820FDF7B8FAC820FDF7B5FAC82017
:10340000FDF7B2FAC820FDF7AFFA50483030FDF7AB
:103410009BFE00B1FEE7E0688188B0F80AC003892E
:10342000C2888DE80E10438802885EA14648FEF7E8
:1034300001FCDFF884A14FF4007BE07800B3E57075
:103440004248FDF77FF91FFA80F94048FDF72CFA52
:10345000642F03D27F1CC844BFB20AE06421B8FBCA
:10346000F1F00027484340F2AD11B0FBF1F060816C
:10347000B84640215148FDF753FE2071F0B3256254
:10348000607840B180215046FDF74FFE2F486570AF
:103490003030FDF782FEA0780028CED0A570012044
:1034A000FDF762FA3078012842D0002240215046D0
:1034B000FDF73FFE707801283CD000228021504665
:1034C000FDF737FEB078012836D000224FF4807126
:1034D0005046FDF72EFEF07801282FD000225946E5
:1034E0005046FDF726FE3079012829D05FF0000212
:1034F0004FF480713248FDF71CFE00E008E070795F
:1035000001281FD0002240212D48FDF712FE94E72C
:10351000206AB0F5FA6F02D2401C2062B0E7124870
:10352000FEF732FD5FF06400FDF71EFAC820FBE7EE
:103530000122BBE70122C1E70122C7E70122CEE752
:103540000122D5E70122DEE76809002004010020FE
:1035500000100240E0044242003000400000002021
:1035600040000020480000200020010825642C2590
:10357000642C25642C2564006469703A3031302E47
:103580003030352E3034302E3038330025642D2540
:10359000642D25642D25642D25642D25642D256439
:1035A0002D25640025582D25582D25582D25582DBD
:1035B00025582D255800000000100140000C014046
:1035C00000080140002810D008490A6890420CD336
:1035D0004A68904209D2002200F8042C8A68083810
:1035E000904200D2886000F0A5BB70475C000020CC
:1035F00010B50A480A4A20F003004FF4C86310606F
:10360000002103804180017100F5C86101245160EF
:103610000C710B804B80906010BD00008B5200201D
:103620005C000020F0B5002846D04FF6FC71C01CAD
:1036300000EA01054FF4C86C0C2D01D20C2501E005
:1036400065453ED8204CC5F5C866A3682268981A1F
:1036500081B234E0501807797FBB07887F1A083F92
:10366000AF422BD3068805F1140E761A0127083EC7
:10367000764514D30D440835AEB295194FF0000EBF
:1036800085F804E0B0F800E0A5F800E06980068065
:1036900007712988614503D0951C4E5300E00771DE
:1036A000984208D1616801E01B8813441D790DB16F
:1036B0008B42F9D1A3600830F0BDFFE7515A8E422A
:1036C000C8D80020F8E700005C0000202DE9F04792
:1036D0004FF6FC72C91C11404FF4C8650C2901D289
:1036E0000C2101E0A94212D82A4E3468A04210D31E
:1036F000726890420DD2A0F10802131B30F808CC7A
:103700009BB2ACEB0307083FBFB2B94203D94FF0FD
:103710000000BDE8F087FCD0B1461E4EA4444FF037
:10372000000A9CF804803668B8F1000F06F1020622
:1037300018D001F1140CBC45EBD8194408318FB2F4
:10374000E119D9F80840A14201D2C9F8081081F85E
:1037500004A014880C804B8017800988A942D8D017
:103760008F53D6E719440831D9F80880BCF80070A7
:1037700089B2E04503D104EB0108C9F808800C4484
:1037800084F804A02780638011802288AA42C0D0D8
:103790009153BEE75C000020092806D2002904D01E
:1037A000024A52F82000FEF7E1BB70478061000832
:1037B00030B5064D002400BF55F8240000F008F88D
:1037C000641CA4B2092CF7D330BD0000806100084E
:1037D0008268002111604168C91C21F003010022A8
:1037E00007E08368521C1B680B60836819600388BC
:1037F000194443889342F4DC70470000092801D340
:1038000000207047024951F82000FEF7B5BB0000C8
:10381000806100082DE9F041044606A890E8E00028
:1038200000206060A060E06084F82B00032084F832
:103830002000E5610A4D287884F82E00401C28708D
:103840002046276100F01CF82046B04710B1002048
:10385000BDE8F0816868206020466C60F8E70000F1
:103860008C0000207047C90709D04168002906D0A4
:1038700090F82B10090702D5011DFEF7EBBD70472C
:103880002DE9F0411E46054617460C000FD0206872
:1038900068B11146284600F04FF83146284600F03E
:1038A00026F821462846BDE8F04100F025B8284614
:1038B00000F022F83946284600F03EF83146284606
:1038C000BDE8F04100F013B801498860704700007E
:1038D0008C00002090F82B10CA0707D021F00101BE
:1038E00080F82B10090701D5FEF76ABB704701B1BC
:1038F0000968C1607047000038B50C00054601D06A
:10390000206801E00B4800680090696888420ED08A
:103910006946281D00F0B6FF6946281D02F0A2FB8B
:1039200034B12068686001212846FFF79CFF38BD4C
:103930000020F7E71062000801B109688160704754
:1039400090F82B10CA0708D141F0010180F82B1024
:10395000490702D50321FFF786BF70472DE9F05FC5
:1039600016460D4605285CD2DFE800F0030507097E
:103970000900362704E0222702E00E2700E0002796
:103980004FF001094FF00008F6B3012E65D0022E6A
:1039900063D0032E45D10820FFF730FFDFF8E0B0F9
:1039A000040018D0E0191330267320F00300C4E996
:1039B0000080FF1C27F00300C0F5147041462581EC
:1039C000A84200D9284660814F46A4F80E90A2462E
:1039D0002D1A88461DE08BF8009022E00820FFF7A2
:1039E0000DFFC8B1067380F80D80C0F80080A9B241
:1039F000CAF800004FF414720181914200D31146BD
:103A0000418100F1100200E00EE04260C7816D1AB2
:103A10008246002DE2DC2CE08BF80070204600F09E
:103A2000F8F80020BDE8F09F07F1130020F0030133
:103A3000E81C20F00300084480B2FFF7F3FD040007
:103A4000F0D0E019133020F003006060258165811B
:103A5000C4F8008084F80C800BE00720FFF7CEFE4E
:103A60000400DFD0C4F8048025816581C4F800809B
:103A70002673A4F80E9084F80D802046D2E700004B
:103A80009800002070B50528DDE9044511D2DFE873
:103A900000F0030507090900362004E0222002E0B7
:103AA0000E2000E00020C01C20F003004618AE42AB
:103AB00001D9002070BD00251D6014B1204458605C
:103AC00000E05D6002205873198159811A7301204A
:103AD000D881184670BD10B500280FD000290DD030
:103AE00004E003890C892344038110460268002AFC
:103AF000F7D102890B891A440281016010BD0021AF
:103B000002E0491C006889B20028FAD108467047D3
:103B10002DE9F0474FF000070C4605003E466FF0D8
:103B20000F0932D07CB32889218988422DD36FF0C8
:103B3000050A6889C11B6089801B814201DB80B254
:103B400000E088B28046606842468119686838445F
:103B5000FCF75BFB07EB080087B206EB080086B2B8
:103B60006089B04201D8246800266889B84202D131
:103B70002D68002745B15CB160892189884207D151
:103B8000206860B904E000E06CB14846BDE8F08709
:103B90003DB168892989884203D1286808B1504617
:103BA000F4E7002CC5D10020F0E72DE9F0471646D8
:103BB00089464FF00008002806D0B9F1000F02D066
:103BC0000027044620E00020BDE8F0872BB1608983
:103BD000984202D8181A83B215E06089C01A85B2DB
:103BE000B54200D9354660682A46C11809EB07007E
:103BF000FCF70BFB08EB05001FFA80F8781987B279
:103C0000701B86B2002324680EB1002CDED1404622
:103C1000DAE770B500281BD00024C189491E0904C9
:103C2000090CC18113D1427B017B0568920702D543
:103C30000169884707E003290BD001290CD002292C
:103C40000AD0FFF7BFFC641CE4B22800E5D120468F
:103C500070BD0146082001E001460720FFF79CFDEA
:103C6000F1E7002200F003B80122AFF3008030B585
:103C700041B138B1002907DA4B429DB24389AB42CA
:103C800025D302E0002030BD8DB2047B436834B1FF
:103C9000032C04D0022C0AD0012C08D017E05A1AA9
:103CA00000F110044260A24208D243600FE00029F4
:103CB0000BDA4289AA420AD35A1A426042890A445C
:103CC0004281028911440181DCE7002AF4D10120FC
:103CD00030BD70B502898A4224D98A1A0D4604463D
:103CE00005E0281A85B22089104420812468608963
:103CF000A842F6D3207B68B96089A8420AD0607BCD
:103D0000800707D4A088001B284481B22046FFF713
:103D1000DDFC044665812581206808B1FFF779FF45
:103D20000020206070BD002802D0C189491CC181DB
:103D30007047000030B5134903880A681344941C87
:103D400098420DD01D795DB94D68AB4208D08D68A1
:103D50009D4200D188601D8805801B88851A1D53EF
:103D60004388134483420BD01D79002D08D18D6800
:103D7000854200D18B60018819800088991A01530F
:103D800030BD00005C000020520805E030F8023B26
:103D9000521E21F8023B92B2002AF7D17047FDF77C
:103DA000CDB900002DE9F041054616460F46062024
:103DB000FFF724FD040013D0FFF7F1FF1C490A6848
:103DC000002A0FD04B68A0EB030300BF4FF00000A8
:103DD000E660206005EB0300C4E9010706D10C6032
:103DE000BDE8F0814FF000034860EFE75068A8425B
:103DF00003D9401B50602260F1E7104610E04E6886
:103E00009E420CD94A68D21A4A6004E0AB4202D9F9
:103E1000516829446160016821600460E0E7084658
:103E200061684368CB1A636001680029EED0E6E759
:103E3000E000002070B5094D012400BF05EBC4026D
:103E400055F834000649FFF7ADFF641C032CF5D389
:103E5000FFF7A5FF0349486070BD0000F861000846
:103E6000511F0008E00000202DE9FC5F0446007DA2
:103E70000A283DD00025DFF8C080D4F84CB0D4F833
:103E800024A0D4F81090D4F88C602F4678B30D4657
:103E9000E78A214608F1180000F039FF012188F86F
:103EA0000010E06E08B101F0AEFDA06E08B101F0A7
:103EB000AAFD206F08B101F0A6FD45B1208B231D9E
:103EC000CDE9007022465146584601F03AFD2146A0
:103ED0000120FFF761FC002E2CD002B04846B4460A
:103EE000BDE8F04F6FF00C015DF804EB60470AE0AD
:103EF000114821461C3000F00AFF2146BDE8FC5F56
:103F00000120FFF749BCE08A0028CAD0D8F8100089
:103F1000A0420AD1C068C8F8100008E0C168A142F8
:103F200002D1E168C16002E008460028F6D1002015
:103F3000E060B6E7BDE8FC9F9C0000200121FFF790
:103F400093BF00002DE9F04105460120FFF756FC24
:103F50003B4E040047D100221146F368F06906E0A9
:103F6000046A1C1B944201D322460146C068002803
:103F7000F6D111B10846FFF7E1FF0120FFF73EFC43
:103F8000040030D1092000F0E9FB0120FFF736FCE6
:103F9000040028D1082000F0E1FB0120FFF72EFCEF
:103FA000040020D129467F2D00D97F2100231A4605
:103FB000D6F80CC0B0690BE0447D8C4207D8076A84
:103FC000ACEB07079F4202D33B4602462146C0683E
:103FD0000028F1D112B11046FFF7B0FF0120FFF722
:103FE0000DFC040028D09821FCF728F965754FF4E2
:103FF0008660A4F86000400060852085FF20A072E4
:104000004FF4067060860620A4F84000E087C01FC9
:1040100020860120A4F84800143400F06BFC2064D2
:10402000A06320636064F068E060B0786072054867
:10403000E0660548E067143C2046BDE8F0810000DA
:104040009C0000200158000800DD6D00017D012961
:1040500003D0817E41F0100181760121AFF3008011
:104060002DE9FC470446007D534D4FF00109002720
:1040700091B3042801D007283ED1616F19B9218D71
:10408000B1F5066F38D0218BE08ACDE90001231D00
:104090002246616AE06C01F054FC204600F016FEF6
:1040A000A869A04209D1C068A86108E0C168A1421E
:1040B00002D1E168C16002E008460028F6D1E7605D
:1040C00085F80090207D042807D03C480068A04275
:1040D0000BD101F09BFE0CE00EE00A202075E86990
:1040E000E060EC6101F034FE03E021460120FFF7BF
:1040F00053FB0020BDE8FC874FF00508082853D289
:10410000DFE800F0041A374040525248E08A0026A7
:1041100078B12869A04209D1C068286108E0C16867
:10412000A14202D1E168C16002E008460028F6D150
:10413000E7602146012019E00026214B012100BF44
:1041400053F821002246006804E0856F954200D1B3
:104150008767C0680028F8D1491C0429F0D31648A5
:104160001146143000F0D3FD21460220FFF714FB66
:104170001FE0114800262146183000F0C8FD85F8E0
:104180000090D6E7204601F080FC060009D184F8B3
:10419000148006E0204601F078FC060001D10920D9
:1041A000207534B116B104E0002602E0204600F08C
:1041B000E5FB30469EE700009C000020DC0000206C
:1041C000E86100082DE9F0470746DDF820809A46AF
:1041D00091460D465FEAC87001D0042600E0002633
:1041E0000320FFF70BFB040013D084F80A804FF084
:1041F0000008C4E9008528891421801B20812846F5
:10420000FFF72FFD48B1204601F0EFFB0020BDE88D
:10421000F0872846FFF7FDFCF8E760684068E0603B
:10422000F88AFEF7C5FFE1680880388BFEF7C0FF0B
:10423000E16848805046FEF7B9FFE1684860B00881
:10424000000300F5A04040EA0900FEF7B1FFE16875
:104250008881E1682046A1F81280D8E710B50446AD
:104260000846FEF77FFD40B1B0F9220028B128389A
:1042700080B2844200D220460446204610BDF8B5E4
:1042800004460027B0F862007E1E0D46092801D3BF
:10429000E80718D0A80700D50127F80701D00421A6
:1042A00000E0002100221046FFF758FB01000AD071
:1042B00000972A462046A36DFFF784FF010002D035
:1042C000A06E30B108E0A07E40F08000A0763046BD
:1042D000F8BDA16604E010460268002AFBD1016027
:1042E0000020A4F86400A80702D0A06D401CA065BF
:1042F000E80703D0A07E40F02000A0764868FFF7D2
:10430000FEFB34F8621F084420800020F8BD000046
:1043100070B5144DA878401CA870AC691FE0617F8F
:10432000A87881421AD06077A07EC10709D040F0FA
:104330000200A076204600F021FBA07E20F00300C2
:10434000A076E668606F38B100202870204600F043
:10435000BFFE28780028E0D1344600E0E468002C55
:10436000DDD170BD9C0000200A4910B508460B69DC
:10437000C088421C92B213B18C88A04204D2CB6890
:104380001433185CCA8010BD001BC0B2CA80185C10
:1043900010BD0000BC000020704700002DE9FC5F4C
:1043A000D34E05464068F060688914287CD3D14F0D
:1043B00039687869FEF716FA002875D1387DC0F3A0
:1043C00003100E2870D0F0688089FEF7F1FE000B14
:1043D00080001428EAD329898142E7D3A0F114018F
:1043E00089B271804FF0000AC6F810A06A89824233
:1043F00005D3B18041422846FFF733FC1BE06FF044
:1044000013012846FFF72DFC6889B0807188091ACE
:104410008CB2404201B22846FFF723FC286841894C
:10442000A142C3D341683161614209B2FFF719FC6F
:104430002889001B2881F0680088FEF7B9FE014634
:10444000F06801804088FEF7B3FE0146F0684180C5
:104450004068FEF7ABFE0146F0684160716180681C
:10446000FEF7A4FE0146F0688160B161C089FEF7E5
:104470009FFE0146F068C1818089FEF799FE00F039
:104480003F0030702989820700D0012211447181D8
:10449000DFF864920022D7F810B0D9F80030F16844
:1044A0001C46D7F814E045E01CE100BFB4F818C082
:1044B000B1F80080C4453BD1B4F816C0B1F8028011
:1044C000C44535D1D4F80480D84531D1D4F8008022
:1044D000F0452DD132B1D4F80CC0C2F80CC0E36065
:1044E000C9F8004044B3DFF8149257460007C9F8F2
:1044F00000A02B89A9F80830C9F80450C9F80C109D
:10450000C6F81CA086F801A0A6F808A003D5687B11
:1045100040F001006873606FF0B3204600F0D8FDF2
:104520000D3060D0606FB8B3708900285BD141E076
:104530002246E468002CB9D17148D7E90427006805
:1045400011E0038B0C88A3420CD1C38A4C88A34290
:1045500008D14368934205D10368BB4202D101F000
:1045600011FCBFE0C0680028EBD1664C0022206837
:10457000034610E0B0F816C0B1F80280C44508D177
:10458000D0F800C0BC450BD0002808D0BCF1000F0B
:1045900008D00246C06800E00CE00028EAD18EE0B6
:1045A00000287DD01AB1C168D160C360206000F0DE
:1045B000F3F897E02046346200F0D2FB0D3072D061
:1045C0007078354600070FD5D4F88C201AB16FF0FB
:1045D0000D0120691FE02146474800F098FB214665
:1045E0000120FFF7D9F85EE02A893AB1E36F23B1E1
:1045F0002146206998470D3055D02F816878C00634
:104600000BD5A07EC006E6D4D4F88C20002AE2D0D8
:104610006FF00E0120699047DDE7E86908B3A17EDD
:10462000C90605D5FFF7F5FA2046FFF787FC3AE003
:10463000D4F880C0BCF1000F07D0D4F81080024637
:10464000002321464046E04705E00023024621467C
:10465000184601F0D5F810F10D0F24D008B1E86923
:1046600060676878800618D5606F20B1417B41F0A3
:104670002001417311E0208DB0F5066F01D0401C80
:104680002085D4F880C0BCF1000F06D000231A4664
:1046900021462069E0470D3005D020462F6200E01A
:1046A0000DE000F06BF93762F761D9F804004C4671
:1046B000002802D0FFF7ADFA6760BDE8FC9F88894B
:1046C000FEF776FD40070DD4F0680A4B018840885C
:1046D000CDE9000171897069103301441A1DB06978
:1046E00001F02FF92846BDE8FC5FFFF792BA000001
:1046F000BC00002070520020B400002088870020F9
:10470000B8000020B00000203EB50446C06C401E3A
:10471000FEF74CFD034600221146204600F012FA37
:10472000050014D0201DFEF71DFB98B10022009259
:104730000621CDE90110A37A221D21462846FEF765
:10474000E5F904462846FFF764FA20463EBD4FF0DF
:10475000FF303EBD6FF00304F4E7000030B40D4BB2
:10476000044600210846DD689A6909E0137DA342EA
:1047700005D1136AEB1A8B4201D319461046D26851
:10478000002AF3D1002803D030BC0021FFF76CBB16
:1047900030BC70479C0000207CB5364E0546307812
:1047A00041070ED4C1060DD5F068334B018840880F
:1047B000CDE90001718970691A1D0144B06901F0E9
:1047C000C0F87CBD8007FCD5687DFFF7BBFB04000B
:1047D0003ED0294810384169216000696060E88A4C
:1047E000E082F0680088208303202075706901460C
:1047F000401C6062491E2165E0622869A56720614E
:10480000287A00F00C0020721C480168E160046006
:1048100001F09EFA1A4901200870204600F01CFAA7
:10482000F068211DC089A4F85C00A4F85E00A4F81B
:104830004A00608EFFF712FD608612212046FFF7C6
:104840001EFD90B12046BDE87C400021FFF70CBB67
:10485000002DB6D0AB69002BB3D0286902B04FF061
:10486000FF32BDE87040002118472046BDE87C407B
:1048700000F084B8BC00002080520020B40000206A
:104880009C00002070B50D4604001ED02068002852
:104890001BD00E4E2046B16900F01AF8204631694F
:1048A00000F016F8002D10D0286800280DD006F171
:1048B0001400026807E011682368D068994201D1AA
:1048C000296811600246002AF5D170BD9C000020C5
:1048D00070B50546084609E001682A68914204D18E
:1048E000C468FFF72BFB204600E0C0680028F3D126
:1048F00070BD00000249D1E902021044886070478F
:104900009C00002070B50546C0680C468089FEF703
:104910004FFC194EC00715D0204601F074F8002452
:1049200027E08089FEF744FCC00707D00120FEF78E
:104930003FFC0146E8688289114381812046246852
:1049400001F053F8ACB1E068228973694168114401
:104950002A891A44511AE4D52889C218E0684068A7
:10496000121A002A05DDC01A81B229816868FFF792
:10497000B0F92C6070BD0000BC0000202DE9F05F94
:1049800004466F480068A04202D10020BDE8F09FB5
:10499000B4F85C10B4F84800814200D20846824660
:1049A000A07EA56E80070FD54DB1E8684068FEF780
:1049B000FDFB616C401A29890144514504D9204608
:1049C000BDE8F05F01F028B8E66E0EB903E00646D8
:1049D00030680028FBD1201DFEF7C4F95FEA00090A
:1049E0006FF003010BD04FF0000B14B120680028CA
:1049F00004D119F1040002D0006820608BE0084661
:104A0000C4E7E8688089FEF7D3FBE06EA8B1A07E1A
:104A100010F0440F11D1A16E29B10A686AB9098951
:104A2000628E914209D2B4F8601031B1B4F86210CC
:104A3000092902D210F0A00F79D0207D022807D0DA
:104A40001020FEF7B5FB0146E86882891143818199
:104A50004A462146284600F0ABF820B1A17E41F03D
:104A60008001A17692E72868A066207D022803D005
:104A7000A07E20F00300A076E8684068FEF796FB71
:104A80000746E8688089FEF793FB800700D0012085
:104A9000298938440844E16C091A00D5E064E868C3
:104AA0008089FEF785FB800700D001202989C84254
:104AB0002DD0C5F800B0E06E68B1E8684068FEF738
:104AC00075FB0746F0684068FEF770FB381A1BD587
:104AD00004F16C0004E0E56617E000BFD8F80000C0
:104AE0008046006850B1C0684068FEF75FFB07462B
:104AF000E8684068FEF75AFB381AEFD4D8F800008F
:104B00002860C8F8005005E035602E4602E02846CF
:104B100000F06BFFA56E55B1E8684068FEF746FBF4
:104B2000616C401A2989014451457FF66AAFA06E35
:104B300008B9A4F864B0A07E20F08000A07624E735
:104B4000DC0000202DE9F041054688180F4614309E
:104B500081B2984600220120FEF700FF060023D014
:104B6000E88A7468FEF724FB2080288BFEF720FB80
:104B70006080C4F80480686AFEF718FBA060B8087B
:104B8000000300F5A04080B240F01000FEF710FBDB
:104B9000A081688DFEF70CFBE081002020826082FE
:104BA000698D686A0844E8623046BDE8F08100001B
:104BB000FEB50546406817460C46C089012801D05D
:104BC0000020FEBD606AFEF7F1FAE9688860608D3A
:104BD000FEF7EEFAE968C881618D606A0844E06218
:104BE000EE68A87A1436C00709D0211D4FF406706C
:104BF000FFF734FB40F00170FEF7D8FA3060B4F9EB
:104C000030000026002800DA2686606B38B911488B
:104C100000686063E8684068FEF7C8FAA0636968E6
:104C2000A8898A88801A4A89121A4A8169680A8979
:104C3000101A08816968E868221D4860E868062142
:104C40000682607A8DE88300A37A21466868FDF7C2
:104C50005DFFFEBDA80000202DE9F0411A4C06467C
:104C60006088002818D00020E0804FF406750FE01F
:104C7000FFF77AFB00280FD0012809D002280DD0B9
:104C8000FFF772FB022807D3E1880844801EE0800A
:104C9000E08861888842EBD3BDE8F081FFF764FBD0
:104CA0000428F9D1E0886188801C8842F4D8FFF795
:104CB0005BFB0702FFF758FB3843A84200D800B956
:104CC00028467086E4E70000BC00002070B504466A
:104CD000007D00281AD00A2818D0012816D0606F4D
:104CE000002510B1FEF795FF6567206F00F08BFE81
:104CF0004FF0FF3025672086A06E00F084FEE06E46
:104D000000F081FEA566E566A4F8645070BD70B53C
:104D10000C4601460068A04209D1C068086008E05E
:104D2000C168A14202D1E168C16002E008460028E2
:104D3000F6D100252046E560FFF7C8FF207D0A2850
:104D40000AD0012808D0A07EC10705D040F002009B
:104D5000A0762046FFF712FE2575E58270BD0000A3
:104D60002DE9FC5FD44D04462878410722D5207DEB
:104D700002280FD0616A686981420FD0421A08D4B4
:104D8000228D1144401A002803DCA07E40F002006E
:104D9000A0768EE1E06CA9698842FAD1687840F08B
:104DA00008006870A07E20F00100A0766FF00D0072
:104DB000BDE8FC9F800704D5207D022801D0032890
:104DC000E3D1A07EC00602D4BC48006820624FF048
:104DD000000884F896802046FFF73EFFB84A217D00
:104DE00002F110030420DFF8DCA2B74FB74E891E92
:104DF00014324FF001094FF00A0B0829C9D2DFE83D
:104E000001F00470CDD1F7CDF6F52978CE06C0D5E6
:104E1000890755D5616CAE69491CB14250D16969A9
:104E20000A46491C61626664E162E968521EC989EA
:104E3000A4F85C10A4F85E1022652075608E211D18
:104E4000FFF70CFA6086B4F85C10A4F84A1041F23F
:104E50001C11B1EB400F01D2420000E00A46B2EB58
:104E6000800F01D9810003E0B1EB400F00D2410077
:104E7000A4F84810B4F86200401EA4F86200E06E86
:104E8000B0B10168C4F86C1000F0AFFDE06E98B1ED
:104E9000A4F8308084F84280D4F88430002B3FF4AA
:104EA00074AF00222146206998470D3034D06CE75A
:104EB000A06E0168A166E7E74FF0FF302086EBE7C0
:104EC000E86801884088CDE9000169896869014482
:104ED000A86900F036FDA4F83080204600F01AFDE5
:104EE000E7E02978CE064ED5616CAE69711A0129CA
:104EF0003DD4E16C711A002939DC2075A06F40B1F6
:104F0000836933B1002221462069984738B10D30BA
:104F100002D02046FFF712F86FF00C0048E7204659
:104F200000F00CF9B4F85C00A4F84A00288908B134
:104F3000401E2881608E41F21C11B1EB400F01D25E
:104F4000420000E00A46B2EB800F01D9810003E085
:104F5000B1EB400F00D24100A4F8481068788006F9
:104F600010D5A07E40F00200A076072054E0E8684B
:104F700001884088CDE900016989686901443046AB
:104F800000F0DFFC95E0880707D5606A6969401E7C
:104F9000884202D1204600F066FC8AE0204600F0FC
:104FA000CDF8DBE7204600F0C9F86878800628785D
:104FB0004FEAC06027D5002805DAE06CA96988426D
:104FC00001D1A06E28B1A07E40F00200A07608209A
:104FD00022E0A07E40F00200A0762046FFF776FE99
:104FE0003068A0420CD1C068306048E051E02DE04C
:104FF00014E0C168A14202D1E168C1603FE0084607
:105000000028F6D13BE0002853DAE06CA969884219
:105010004FD1A06EE0BB062020754AE0204600F08C
:105020008DF86878800644D5A07E40F00200A07616
:105030002046FFF74BFE3068A042D4D003E0C168A1
:10504000A142D9D008460028F9D118E0204600F046
:1050500075F82878C0062CD5E06CA969884228D15B
:10506000A06EA8B92046FFF731FE3068A042BAD042
:1050700003E0C168A142BFD008460028F9D18AF8F0
:10508000009084F814B03868E0603C6000F060FE86
:105090000FE0204600F052F82878C00609D5E06CF1
:1050A000A969884205D1A06E18B9687840F010004F
:1050B000687000207CE60000BC000020A8000020F2
:1050C000705200209C000020B8000020B400002096
:1050D0002DE9F041456F044600206E7B6067D4F8EF
:1050E00080702FB100232A4621462069B84705E089
:1050F00000232A462146184600F082FB6FF00C0779
:1051000030B10D3018D06FF004006567BDE8F08154
:10511000B0060FD5208DB0F5066F01D0401C20855C
:10512000D4F8805035B100231A4621462069A8479B
:105130000D3001D00020E9E73846E7E72DE9F047D8
:10514000FE4D04464FF000062878C0067ED528465E
:10515000B4F85CC0636D276D6A69C16880690CEB47
:105160000309B7EB020808D4974201D11F1A04D4EF
:10517000834214D1CB89634511D9C989A4F85C1045
:10518000B4F85E308B4201D2A4F85E10C4E914205A
:10519000002994F8951009D009B184F89560626CE3
:1051A000811A002934DC698941B12EE00029F6D149
:1051B00084F89460012184F89510F0E7B4F85C302D
:1051C000616D0B444B4520D1B4F9301000291CDB34
:1051D00082421AD194F84300411CC9B2814201D9DC
:1051E00084F8431094F84300032809D9B4F8481010
:1051F000608E084480B2884201D9A4F848008DE04E
:1052000002D1204600F058FB88E084F8436085E036
:10521000012967D4E16C411A002963DCA17E4A07A9
:1052200006D521F00401A176B4F84A10A4F848107C
:1052300084F84260E18FB4F93C2001EBE201A4F86C
:10524000401084F843606064207D00E0A6E00428FC
:1052500029D3B4F84800B4F84A108842618E04D2C9
:10526000014489B2814207D81DE0494391FBF0F126
:10527000014489B2884216D2A4F8481013E0386875
:10528000E0667868FEF73BFC7868FEF738FCB4F817
:105290006210081AA4F86200388929890844288114
:1052A000384600F0A2FBE06EC0B1C0684068FDF770
:1052B0007DFF0746E06EC0688089FDF779FF8007B3
:1052C00000D001203844E76E39890844A969401AA2
:1052D0000028D4DD17B12686E6761FE04FF0FF30B8
:1052E0002086F9E7204600F097FB17E03868A066B3
:1052F00008B9A4F864607868FEF701FC7868FEF7E6
:10530000FEFB0146B4F86200401AA4F86200388936
:10531000298908442881384600F067FBA06EB8B19F
:10532000C0684068FDF742FF0746A06EC0688089EC
:10533000FDF73EFF800700D001203844A76E398971
:105340000144A869411A03D4E16C401A0028CDDD5C
:10535000B4F8600029890844A4F86000606BE8B1E3
:10536000A16BAA69891A19D575490988081AB4F96F
:105370003C10A0EBE10000B2014409B2A187002873
:1053800001DA404200B2B4F93E20A0EBA200104482
:10539000E08700EBE100A4F8400066636B89002B16
:1053A0007ED0207D07287BD2606A6A69DFF894810D
:1053B000811A012926D41344C31A5B1C002B21DC5B
:1053C000D8F80400474642898A420ADA0289521A0A
:1053D00092B203E0028146810068C91A43898B4278
:1053E000F8DB494209B2FEF73CFCAA8A606A3989B7
:1053F000821A891A39816861F9684860616A401ABD
:1054000007D5E7E1101A04D5A07E40F00200A0768F
:10541000E0E1218D606A421869698A1A521C002AEB
:10542000EFDC884271D1D8F80C0047468089FDF73F
:10543000BFFE800700D001203989B946084480B2F8
:105440006881218D814232D2D9F80C004F46808983
:10545000FDF7AEFEC0070FD0F8688089FDF7A8FE03
:10546000C0F344004000FDF7A3FE0146F8688289BE
:1054700022F47C5211438181208D3881F868808923
:10548000FDF796FE800702D53889401E388139899C
:105490007868FEF71EFCF8688089FDF789FE00E059
:1054A0009DE1800700D00120398908446881206F80
:1054B00060B3D9F80C008089FDF77AFEC00704D1EB
:1054C00007E00168216700F090FA206F0028F8D10A
:1054D00066E0276F24E08089FDF76AFEC0071BD0D5
:1054E000D9F80C008089FDF763FE800714D40120F1
:1054F000FDF75EFED9F80C108A8910438881FDF70C
:1055000057FE800703D0012102E0B7E048E0002108
:10551000B9F808000844688138463F6800F065FA29
:10552000B7B3F86839896B89426811446A691A44CB
:10553000511AD0D5686999B2421805E0BC00002024
:10554000A800002088870020F9684968521A002ABC
:1055500025DD091AA9F80810D9F80C00A846808999
:10556000FDF726FE800704D5B9F80810491EA9F8F2
:105570000810B9F80810D9F80400FEF7AAFBD9F80A
:105580000C008089FDF714FE800702D0012101E0A4
:1055900005E00021B9F808000844A8F80A002767C8
:1055A0006889696901446162218D081A2085204655
:1055B00000F034FCD9F8041048460A890AB1E961C0
:1055C0004660D9F80C008089FDF7F2FDC00743D092
:1055D000687840F0200068703EE069618089FDF7DE
:1055E000E7FD800701D0012100E000213A89606ACF
:1055F000104408446062F8688089FDF7D9FDF868B6
:105600008089FDF7D5FD800700D001203989084445
:10561000218D081A2085204600F000FC7968088951
:1056200030B1E86910B1FEF756FA00E0E9617E603A
:10563000F8688089FDF7BCFDC00708D0687840F0A5
:1056400020006870207D042801D10720207538686B
:105650002067384600F0C9F9276F27B1F868626AF9
:1056600041689142B9D0A07EC10702D020F001006C
:10567000C0E040F00100A076BDE8F087204600F0D1
:10568000CBF9266F9EB168690027F16849688142AD
:1056900012D1B8F8080031898842EDD9574800F096
:1056A00090F90028E8D097B33860314624E0534899
:1056B00000F087F92067DFE717B3FA685268821AAB
:1056C000012A26D4421A521C002A22DC4B4800F040
:1056D00078F90400D0D0F8683989406842186969BF
:1056E000521A002A05DD081A81B239817868FEF75E
:1056F000F0FA314620463C60BDE8F047FFF702B9BA
:10570000421A06D53D4800F05CF90028B4D0206765
:10571000CBE73268F2BB411A002956DDF068808978
:10572000FDF746FDC007A7D1344800F04AF93060C4
:105730000028A1D0F0683189406842186969521A7E
:10574000002A05DD081A81B231817068FEF7C1FABE
:10575000218D606A6A69084469891144081A002821
:105760008ADD3068C0688089FDF722FDC00713D04C
:105770003068C0688089FDF71BFDC0F3440040001D
:10578000FDF716FD01463068C068828922F47C521C
:10579000114300E019E08181A08C218D0844A98A81
:1057A000401A81B23068018130684068FEF791FA92
:1057B0003068C0688089FDF7FBFC800700D00120BD
:1057C000316809890844688156E7374616007FF436
:1057D0005CAF51E72046BDE8F04700F01DB9606AB4
:1057E00069690A1A05D4228D1044081A401C002841
:1057F000EADDA07E40F002003DE70000888700203F
:1058000010B51400084606D0218900F00BF8204698
:10581000FEF7FFF900E00BB1002010BDBDE810401D
:10582000FEF714BC10B50446008D084480B24FF456
:1058300006612085884205D828B9207D072801D037
:10584000092800D12185204600F0E8FAB0F5067F4E
:1058500008DBA07E40F00200A0762046BDE81040A4
:10586000FFF78CB810BD2DE9F041C66E0446002E3E
:1058700020D0306804F16805E06600E02D682868F3
:1058800050B1C0684068FDF791FC0746F068406879
:10589000FDF78CFC381AF1D4286830602E6030682F
:1058A000002108B9A4F8641014F8420F401C04F851
:1058B0000E092160BDE8F08110B50446C06E0028D5
:1058C00027D0A07E400724D42046FFF7CCFFB4F8B1
:1058D0004810B4F85C00814201D9400800E0480853
:1058E000A4F84A0081B2608EB1EB400F05D24FF6AA
:1058F000FF7101EA4001A4F84A1089B200EB4000B0
:105900000844A4F84800A07E40F00400A0760020DF
:10591000208610BDC16E002912D000E011460A6831
:10592000002AFBD1826E0A600022C16EC0E91A1201
:1059300090F84210491C80F842104263FFF71EB8ED
:1059400070472DE9FE4F9046DDE90C9A0E468346DE
:105950001F46002214210120FEF700F805002ED07A
:1059600048466C68FDF724FC20805046FDF720FC7B
:1059700060805846FDF71AFC60603046FDF716FC63
:10598000A06045F21400FDF713FCA08146F2080068
:10599000E0810026268266823846FDF7E3F948B1A9
:1059A00006210096CDE90110FF233A4641462846DC
:1059B000FDF7ACF82846BDE8FE4FFEF72AB9BDE872
:1059C000FE8F70B505460320FDF718FF04000AD0CE
:1059D00004CD95E80B0004C484E80B00241FFEF7F7
:1059E000A2F9204670BD002070BD10B5040009D09A
:1059F000606808B1FEF70DF92146BDE810400320AC
:105A0000FDF7CABE10BD10B503E00468FFF7EDFF57
:105A100020460028F9D110BDFEB504460025C06C13
:105A2000FDF7C4FB0346002229462046FFF78AF80B
:105A3000060017D0201DFDF795F9D0B1617A0091CD
:105A40000622CDE90120A37A221D21463046FDF72A
:105A50005DF805463046FEF7DCF885B1A07E40F0E3
:105A600003000FE0A07E40F00300A0766FF001007D
:105A7000FEBD6FF003053046FEF7CBF8EEE7A07EE3
:105A800020F00300A0762846FEBD70B5846E054662
:105A90000CB909E0044620680028FBD1E068808941
:105AA000FDF786FB400705D02846BDE87040012180
:105AB000FEF7E5BB0120FDF77BFBE1688A89104317
:105AC0008881A87E40F02000A876002070BD0000EC
:105AD0002DE9FC5F9A4D4FF6FF7B4FF4FA7AE868A8
